:100000000C9479000C94A1000C94A1000C940207AC
:100010000C9402070C9402070C94A1000C94A1000C
:100020000C94A1000C94A1000C94A1000C94A100CC
:100030000C94A1000C94A1000C94A1000C94A100BC
:100040000C94D9030C94A1000C94E5020C94BF020B
:100050000C94A1000C94A1000C94A1000C94A1009C
:100060000C94A1000C94A100F801EB01FA01ED0140
:10007000EF01F101F301F501130206021502080276
:100080000A020C020E0210020B05A9060B050E0552
:10009000BF050106530600000000240027002A00C7
:1000A0000000000800020100000304070000000037
:1000B0000000000000000000250028002B000000C8
:1000C000000023002600290004040404040404049E
:1000D00002020202020203030303030301020408F3
:1000E00010204080010204081020010204081020A2
:1000F000590911241FBECFEFD8E0DEBFCDBF22E0EB
:10010000A2E9B1E001C01D92A238B207E1F711E007
:10011000A0E0B1E0EAE7FEE102C005900D92A2394D
:10012000B107D9F710E0C9E7D0E004C02197FE017C
:100130000E94150DC837D107C9F70E9486090C9493
:100140003B0F0C940000FC01918D828D981761F09B
:10015000828DDF01A80FB11D5D968C91928D9F5FFE
:100160009F73928F90E008958FEF9FEF0895FC01A9
:10017000918D828D981731F0828DE80FF11D858D5C
:1001800090E008958FEF9FEF0895FC01918D228DEF
:10019000892F90E0805C9F4F821B91098F73992774
:1001A00008958FED91E00E94C50021E0892B09F4AC
:1001B00020E0822F0895FC01848DDF01A80FB11D7E
:1001C000A35ABF4F2C91848D90E001968F7399278D
:1001D000848FA689B7892C93A089B1898C9180647A
:1001E0008C93938D848D981306C00288F389E02D3B
:1001F00080818F7D80830895EF92FF920F931F93EC
:10020000CF93DF93EC0181E0888F9B8D8C8D9813C9
:1002100005C0E889F989808185FD24C0F62E0B8D03
:1002200010E00F5F1F4F0F731127E02E8C8DE81227
:100230000CC00FB607FCFACFE889F989808185FFE9
:10024000F5CFCE010E94DB00F1CF8B8DFE01E80FD0
:10025000F11DE35AFF4FF0820B8FEA89FB89808101
:10026000806207C0EE89FF896083E889F98980810F
:100270008064808381E090E0DF91CF911F910F91A6
:10028000FF90EF900895CF93DF93EC01888D882342
:10029000C9F0EA89FB89808185FD05C0A889B989F3
:1002A0008C9186FD0FC00FB607FCF5CF808185FFCE
:1002B000F2CFA889B9898C9185FFEDCFCE010E943C
:1002C000DB00E7CFDF91CF91089580E090E0892BAC
:1002D00029F00E94D10081110C94000008953FB7CD
:1002E000F8948091D7019091D801A091D901B09153
:1002F000DA0126B5A89B05C02F3F19F00196A11D74
:10030000B11D3FBFBA2FA92F982F8827820F911DAB
:10031000A11DB11DBC01CD0142E0660F771F881FF2
:10032000991F4A95D1F70895CF93DF93EC01FB0114
:100330004A8120E030E0241708F03FC08C81B901E9
:10034000680F711DCB016B8170E00E94DF0CDC0136
:10035000AA0FBB1F88819981A80FB91F0D90BC916E
:10036000A02D9C918081981325C011969C91119786
:10037000818198131FC012969C91129782819813C5
:1003800019C015969C9115978581981313C01696E0
:100390009C911697868198130DC0ED01289638968A
:1003A000D79699918191981308C0CA17DB07C9F7AE
:1003B00081E004C02F5F3F4FBECF80E0DF91CF913F
:1003C000089590E0FC013197E830F10580F4EC5C91
:1003D000FF4F0C94150D82E00EC084E00CC085E048
:1003E0000AC086E008C087E006C088E004C008951F
:1003F00081E001C083E090E0089501978830910585
:1004000088F4845C9F4FFC010C94150D82E00895E4
:1004100084E0089585E0089586E0089587E00895D2
:1004200088E00895089581E0089583E0089520917B
:10043000D4013091D5012817390771F49091D30177
:100440008091D201981741F0E091D301F0E0EE568F
:10045000FE4F808190E008958FEF9FEF08950895FB
:100460001F93CF93DF93DC015C962D913C915D97B8
:100470002115310539F481E090E013969C938E9319
:1004800012973DC05196ED91FC91529750969C91D8
:100490005097892F80951FB75E964C915E9741FBD0
:1004A000772770F941FD6095F8944081772311F02A
:1004B000492B01C048234083E9012197F1F748E027
:1004C000508160FF02C0592B01C058235083E901BD
:1004D0002197F1F76695415099F7772321F09081A4
:1004E0008923808303C08081982B90831FBF5C96F3
:1004F0008D919C915D970197F1F721E030E0C90162
:10050000DF91CF911F9108952091D4013091D501B1
:100510002817390771F48091D2012091D30190E01E
:10052000805C9F4F821B910960E470E00E94DF0CA9
:10053000089580E090E008952091D4013091D50194
:1005400028173907B9F49091D3018091D2019817F7
:1005500089F0E091D301F0E0EE56FE4F80812091CA
:10056000D30130E02F5F3F4F2F7333272093D30108
:1005700090E008958FEF9FEF08950E94260F1F923D
:100580000F920FB60F9211242F933F934F935F93C7
:100590006F937F938F939F93AF93BF93EF93FF934B
:1005A0008FED91E00E94DB00FF91EF91BF91AF9141
:1005B0009F918F917F916F915F914F913F912F917B
:1005C0000F900FBE0F901F9018951F920F920FB6AD
:1005D0000F9211242F938F939F93EF93FF93E091AA
:1005E000EF01F091F0018081E091F501F091F601C9
:1005F00082FD12C090818091F8018F5F8F732091EE
:10060000F901821751F0E091F801F0E0E152FE4F5C
:10061000958F8093F80101C08081FF91EF919F91A8
:100620008F912F910F900FBE0F901F90189590E013
:10063000FC01E056FF4F3491FC01E452FF4F24913E
:10064000FC01E853FF4FE491EE2309F43BC0332350
:1006500039F1333091F038F43130A9F0323001F50E
:1006600084B58F7D12C0373091F03830A1F034302E
:10067000B9F4809180008F7D03C0809180008F77D6
:10068000809380000DC084B58F7784BD09C08091B0
:10069000B0008F7703C08091B0008F7D8093B00051
:1006A000F0E0EE0FFF1FEC54FF4FA591B4918FB710
:1006B000F894EC91611103C020952E2301C02E2BDC
:1006C0002C938FBF0895CF93DF9390E0FC01E45209
:1006D000FF4F2491FC01E853FF4F8491882361F17F
:1006E00090E0880F991FFC01EA56FF4FC591D49105
:1006F000FC01EC54FF4FA591B491611109C09FB763
:10070000F8948881209582238883EC912E230BC056
:10071000623061F49FB7F8943881822F80958323EB
:100720008883EC912E2B2C939FBF06C08FB7F89433
:10073000E8812E2B28838FBFDF91CF9108958F9270
:100740009F92AF92BF92CF92DF92EF92FF926B0196
:100750007C010E946F014B015C01C114D104E104D2
:10076000F104F1F00E946F01DC01CB0188199909B5
:10077000AA09BB09883E9340A105B10570F321E0A9
:10078000C21AD108E108F10888EE880E83E0981EAD
:10079000A11CB11CC114D104E104F10419F7DDCF8F
:1007A000FF90EF90DF90CF90BF90AF909F908F9091
:1007B00008951F920F920FB60F9211242F933F931B
:1007C0008F939F93AF93BF938091DB019091DC0156
:1007D000A091DD01B091DE013091D60123E0230F1D
:1007E0002D3720F40196A11DB11D05C026E8230F69
:1007F0000296A11DB11D2093D6018093DB01909339
:10080000DC01A093DD01B093DE018091D7019091CE
:10081000D801A091D901B091DA010196A11DB11DB5
:100820008093D7019093D801A093D901B093DA01B6
:10083000BF91AF919F918F913F912F910F900FBEDC
:100840000F901F901895CF92DF92EF92FF92FC01CC
:10085000DC01A05CBF4F9C01295C3F4F1E92A21798
:10086000B307E1F7DF014FEF5FEFBA018D91482742
:1008700088E090E06A017B01F694E794D794C794EE
:10088000417055276627772770956095509541955B
:100890005F4F6F4F7F4F40725378687B7D7E4C2552
:1008A0005D256E257F25019729F7A217B307F1F67D
:1008B000409550956095709547AF56AF65AF74AF52
:1008C00080E4FF90EF90DF90CF9008950F931F93F7
:1008D000CF93DF93EC018B018A819B810E94FD0104
:1008E000F80180838D8181838C8182838F818383D2
:1008F0008E81848389858583888586838A8587839D
:10090000FE013B96D8011896EB9681918D93EC17DA
:10091000FD07D9F7C801DF91CF911F910F910C947A
:1009200023040F931F93CF93DF93EC018B018A81F4
:100930009B810E94FD01F80180838D8181838C81E0
:1009400082838F8183838E81848389858583888553
:1009500086838A858783FE017396D8011896CE5BBD
:10096000DF4F81918D93EC17FD07D9F7C801DF9117
:10097000CF911F910F910C9423040F931F93CF934A
:10098000DF938C01EB01FC01828193810E94FD01C8
:100990008883F8018581898384818A8387818B8319
:1009A00086818C8381858D8380858E8382858F83EC
:1009B000FE013896CE01C7961192E817F907E1F7C4
:1009C000CE01DF91CF911F910F910C9423048F9250
:1009D0009F92AF92BF92CF92DF92EF92FF920F93CE
:1009E0001F93CF93DF93CDB7DEB7EB970FB6F89495
:1009F000DEBF0FBECDBF7C018B01DB018C910E945D
:100A0000E10102978730910508F0A0C18C5B9F4FF0
:100A1000FC010C94150D83E090E09DC1B801C70165
:100A20000E94940181118FC1D8011796AC9017973D
:100A30001596BC90159716969C9016971196CC908B
:100A40001197D12C12968C91885F02C0CC0CDD1CC2
:100A50008A95E2F780E490E00E942F0DF7019683DB
:100A60008583C114D10469F426E030E03C832B83F4
:100A70001E821D8218861F821A8619862FEF2B87E9
:100A8000BAC0AA2009F45FC143818281481320C003
:100A90004423D1F0248130E0413039F0642F70E0FC
:100AA000C90101960E94DF0C01C080E0F701848338
:100AB00041504283220F331F0190F081E02DE20F5D
:100AC000F31F8081918102C080E090E00E94C40DFC
:100AD00080E490E00E942F0D882E492FF801A82F66
:100AE000B92FC801805C9F4F21912D93E817F9071A
:100AF000D9F7D70112968C91129713966C91139790
:100B00008617E1F014969C91282F30E0F901E90F47
:100B1000F11DCF0170E00E94DF0CFC01EE0FFF1F02
:100B2000D7018D919C911197E80FF91F8082418325
:100B300012968C9112978F5F12968C93F7016581B4
:100B4000768185E090E09C838B83DE82CD8218865F
:100B50001F828B2D90E028E0290D02C0880F991F7D
:100B60002A95E2F79A878987AA94AB868CE191E06F
:100B70009A838983CE0101960E94BD04E4C0B80126
:100B8000C7010E9494018111DEC0D8011796BC9064
:100B900017971596DC9015971696AC9016971196A8
:100BA000CC90119712961C91BB2009F4CCC080E424
:100BB00090E00E942F0DF7019683858326E030E0B8
:100BC0003C832B832C2D30E0185F02C0220F331F93
:100BD0001A95E2F73E832D8318861F822D2D30E073
:100BE00048E04A0D02C0220F331F4A95E2F73A87C8
:100BF0002987BA94BB8626E131E03A832983BC0178
:100C0000B9CFB801C7010E94940181119CC0D801DD
:100C10001796BC9017971596DC9015971696AC9082
:100C200016971196CC90119712969C90BB2009F4C0
:100C30008AC080E490E00E942F0DF701968385839F
:100C400027E030E03C832B832C2D30E048E0490D39
:100C500002C0220F331F4A95E2F73E832D83188688
:100C60001F822D2D30E048E04A0D02C0220F331FB5
:100C70004A95E2F73A872987BA94BB8620E131E0AA
:100C80003A832983F8013896DE011C96085C1F4FD1
:100C900021912D93E017F107D9F7BC01CE01019600
:100CA0000E94910450C0B801C7010E9494018111B3
:100CB0004AC0D8011796BC9017971596DC901597E7
:100CC0001696AC9016971196CC90119712969C9010
:100CD000BB20C9F180E490E00E942F0DF7019683BC
:100CE000858388E090E09C838B838C2D90E028E0C6
:100CF000290D02C0880F991F2A95E2F79E838D83E4
:100D000018861F828D2D90E028E02A0D02C0880FE2
:100D1000991F2A95E2F79A878987BA94BB868AE059
:100D200091E09A838983F8013896DE011C96C80108
:100D3000C89621912D93E817F907D9F7B801CE018C
:100D400001960E94660482E090E005C080E090E099
:100D500002C081E090E0EB960FB6F894DEBF0FBEC4
:100D6000CDBFDF91CF911F910F91FF90EF90DF905A
:100D7000CF90BF90AF909F908F900895EF92FF9289
:100D80000F931F93CF93DF93CDB7DEB729970FB69D
:100D9000F894DEBF0FBECDBF7B01FC01858196813B
:100DA000009711F00E94C40DD701D7968E010F5FF6
:100DB0001F4FF80189E0800F9D9191938E13FCCF16
:100DC000C7010E94230499E0292F30E0F801E20FC7
:100DD000F31FD701A20FB31F4081D7968C91481300
:100DE00002C09150F1CF84E090E029960FB6F894BC
:100DF000DEBF0FBECDBFDF91CF911F910F91FF904E
:100E0000EF9008951F920F920FB60F9211242F9317
:100E10003F934F935F936F937F938F939F93AF9382
:100E2000BF93EF93FF93E091D401F091D5013097F8
:100E300009F451C0968DA685B785858591FF04C0BC
:100E40009C91892329F447C09C91892309F043C0D0
:100E5000A389B4899C918589809589238C938689FF
:100E600097890197F1F7608D718DA685B7855585B6
:100E700038E020E0CB010197F1F7822F90E09595C3
:100E80008795282F4C91452309F02068315091F720
:100E9000868D81FD20958091D20190E001968F731F
:100EA00099273091D301381749F0A091D201B0E0D1
:100EB000AE56BE4F2C938093D20103C0868D8160C5
:100EC000868F828D938D0197F1F7A389B4899C91C8
:100ED0008589892B8C93FF91EF91BF91AF919F9161
:100EE0008F917F916F915F914F913F912F910F90D3
:100EF0000FBE0F901F901895CF93DF93FC01828D4A
:100F0000938D892B31F1A091D401B091D501AE1709
:100F1000BF07F9F0109751F05396CD91DC9154979B
:100F2000988155968C91809589238883868D8E7FB4
:100F3000868F1092D2011092D301F093D501E093E5
:100F4000D401A389B4899C918589892B8C9381E0F4
:100F500001C080E0DF91CF910895CF92DF92EF92B0
:100F6000FF920F931F93CF93DF936C017A018B0154
:100F7000C0E0D0E0CE15DF0589F0D8016D918D017C
:100F8000D601ED91FC910190F081E02DC60109950B
:100F9000892B11F47E0102C02196ECCFC701DF91AD
:100FA000CF911F910F91FF90EF90DF90CF90089518
:100FB00040E450E00C94AD074F925F926F927F92A5
:100FC0008F929F92AF92BF92CF92DF92EF92FF9259
:100FD0000F931F93CF93DF938C014B010E947C07EB
:100FE0008FB7F8944090DB015090DC016090DD01F8
:100FF0007090DE018FBF78018FE1E80EF11C570180
:10100000C0E0D0E06801AFE5CA0ED11C8FB7F894FC
:101010004091DB015091DC016091DD017091DE01B6
:101020008FBF4419550966097709F60180819181BE
:10103000092E000CAA0BBB0B84179507A607B70750
:1010400010F48C2F23C0C8010E948402892BF1F276
:101050008FB7F8944090DB015090DC016090DD0187
:101060007090DE018FBF2196C8010E949C02D501BD
:101070008D935D01C034D10549F6F401D7018D91FE
:101080007D018193AC15BD05C9F780E4DF91CF9157
:101090001F910F91FF90EF90DF90CF90BF90AF9096
:1010A0009F908F907F906F905F904F9008950F93D7
:1010B0001F93CF93DF93EC0188819981009729F0EA
:1010C0002A813B812617370788F48B016F5F7F4F9A
:1010D0000E945C0E009761F0998388831B830A83CA
:1010E0002C813D81232B11F4FC01108281E001C091
:1010F00080E0DF91CF911F910F910895CF92DF9201
:10110000EF92FF920F931F93CF93DF93CDB7DEB78C
:1011100028970FB6F894DEBF0FBECDBF8C01CB0170
:101120004AE09E012F5F3F4F6901B9010E94730C95
:10113000F60101900020E9F73197EC19FD09D8017B
:101140001496ED90FC9015973097B9F0EE0EFF1EB7
:10115000B701C8010E945708882381F0F801208157
:10116000318184819581B601820F931F0E94340FD3
:10117000D8011596FC92EE92149781E028960FB64E
:10118000F894DEBF0FBECDBFDF91CF911F910F91BD
:10119000FF90EF90DF90CF900895EF92FF920F9322
:1011A0001F93CF93DF93EC017B018A01BA010E9468
:1011B00057082881398181110DC02115310519F099
:1011C000C9010E94C40D198218821D821C821B82D3
:1011D0001A8206C01D830C83B701C9010E94340F17
:1011E000CE01DF91CF911F910F91FF90EF90089565
:1011F000009769F0FC0101900020E9F73197AF01F9
:10120000481B590BBC018FED91E00C94AD0780E0B9
:1012100090E00895CF93DF930E94F808EC018BE6ED
:1012200091E00E94F8088C0F9D1FDF91CF910895E7
:101230008F929F92AF92BF920F931F93CF93DF93A2
:10124000CDB7DEB7A1970FB6F894DEBF0FBECDBF06
:1012500019A2423008F44AE08E010F5D1F4F842E20
:10126000912CA12CB12CA50194010E94F30CE62F26
:10127000B901CA0101501109EA3014F4E05D01C05E
:10128000E95CD801EC93232B242B252B61F7C801B3
:101290000E94F808A1960FB6F894DEBF0FBECDBF2E
:1012A000DF91CF911F910F91BF90AF909F908F9042
:1012B0000895EFEDF1E01382128288EE93E0A0E052
:1012C000B0E084839583A683B78382E291E0918323
:1012D000808385EC90E09587848784EC90E0978705
:1012E000868780EC90E0918B808B81EC90E0938BF3
:1012F000828B82EC90E0958B848B86EC90E0978BD0
:10130000868B118E128E138E148E0895CF93DF93D9
:10131000CDB7DEB768970FB6F894DEBF0FBECDBF6E
:10132000789484B5826084BD84B5816084BD85B5C0
:10133000826085BD85B5816085BD80916E008160CC
:1013400080936E0010928100809181008260809372
:101350008100809181008160809381008091800074
:101360008160809380008091B10084608093B1009F
:101370008091B00081608093B00080917A00846099
:1013800080937A0080917A00826080937A008091C5
:101390007A00816080937A0080917A0080688093DF
:1013A0007A001092C100E091EF01F091F00182E02B
:1013B0008083E091EB01F091EC011082E091ED016E
:1013C000F091EE018FEC80831092F701E091F30130
:1013D000F091F40186E08083E091F101F091F20157
:1013E000808180618083E091F101F091F201808140
:1013F00088608083E091F101F091F2018081806842
:101400008083E091F101F091F20180818F7D8083F2
:101410008BE291E00E942F0D8C01DC0113961C924F
:101420001E92129788EE93E0A0E0B0E0F80184836A
:101430009583A683B78382E391E091838083178AA3
:10144000168A118E108E138E128E158E148E668D46
:101450006E7F6D7F668F6695617081E068278BE097
:101460000E94170361E08BE00E946303E7EEF0E067
:10147000E491D8015096EC93E3EDF0E0E491F0E0D4
:10148000EE0FFF1FEC54FF4F85919491F801928B62
:10149000818B60E08AE00E946303D8015E968C91A4
:1014A00081FD04C061E08AE00E9417038AE0F80130
:1014B0008487E6EEF0E0E491D8011D96EC93E2ED2E
:1014C000F0E0E491F0E0EE0FFF1FE254FF4F859152
:1014D0009491F8019787868788EE93E0E15AFF4F51
:1014E000918380837801F1E6EF0EF11CD7011D9204
:1014F0001C9261E089E00E94630361E089E00E9440
:10150000170360E570E080E090E00E949F03F8011F
:10151000138E128E118E108E178A168A8DE991E025
:10152000958F848F9485963108F04BC02DEB30E079
:10153000378B268B2BE931E0318F208F2CE231E085
:10154000338F228F20916800983050F031E09E3028
:1015500008F430E081E001C0880F3A95EAF701C055
:1015600084E0822B80936800983028F09E3030F021
:101570002CE630E005C02DE630E002C02BE630E07E
:10158000D80154963C932E935397983030F481E0D1
:1015900001C0880F9A95EAF70EC0292F30E09E30DF
:1015A00018F42850310902C02E50310981E001C0E1
:1015B000880F2A95EAF7F801858B8DE991E001976C
:1015C000F1F7C8010E947C071B8A1A8A1D8A1C8AAF
:1015D0001F8A1E8A44E050E06EE671E0CE0142961A
:1015E0000E94CD0860E070E0CE0142960E947E0825
:1015F00060E070E0CE0142960E947E081D861C8647
:101600001F861E86198A188A6A897B896115710569
:1016100031F04E895F89CE010C960E94CD0865E0BD
:1016200070E0CE010C960E947E0881110CC08C8562
:101630009D85009711F00E94C40D1D861C86198A95
:10164000188A1F861E861A8219821C821B821E829D
:101650001D826C857D856115710531F04889598938
:10166000CE0101960E94CD08D7018D919C910197E2
:1016700011F029E001C025E060E0822F288F0E9450
:10168000170364E670E080E090E00E949F03D801B9
:10169000ED91FC914D815E8169817A810280F381B7
:1016A000E02DC801099564EF71E080E090E00E94B0
:1016B0009F0361E0288D822F0E94170364E670E08B
:1016C00080E090E00E949F0389819A810E94C40D6E
:1016D0008C859D850E94C40D8A899B890E94C40DBA
:1016E000F801ED59FF4F108281E03196808311821D
:1016F000128213821482158216823E96C801855684
:101700009F4F1192E817F907E1F77801BCEDEB1A4A
:10171000BEEFFB0AF70112828AE08383148284E120
:1017200090E00E942F0DD70111969C938E931696F0
:101730001C921E92159710937D0200937C0283E702
:1017400091E00E940A0982E891E00E940A0983E779
:1017500091E00E940A0943E0242E312C00917C0282
:1017600010917D027801B4E6EB0EF11C3801E3E63E
:101770006E0E711CD3018C91F70187831086C7010F
:101780000E942304B701C8010E94D8076801F4EE43
:10179000CF0ED11CB601C8010E94DC07803409F0CD
:1017A00096C058012CEDA21A2EEFB20AB601C5015F
:1017B0000E94BE068230910559F08430910509F4EB
:1017C00060C0019709F083C0B8016C557F4F7CC0A1
:1017D000480134EA830E911CF801E951FF4F8081E2
:1017E00090E0982F882731962081820F911DA4E0E8
:1017F000B0E0BC83AB839E838D8318861F821A86DC
:101800001986B1E0BB87EAE5F1E0FA83E983B40128
:10181000CE0101960E94BD04B401C8010E94D80700
:10182000512CD3018C91581639F1F701578221E0E0
:101830002087C7010E942304B701C8010E94D8076E
:10184000B601C8010E94DC078034B1F4B601C501BD
:101850000E94BE06039781F4B401C8010E94D80714
:10186000B601C8010E94DC07882331F0B601C5012A
:101870000E94BE06039781F7539435E05312D1CFEF
:1018800026C0780184EAE80EF11CF801E951FF4F07
:10189000808190E0982F882731962081820F911DBA
:1018A0003C822B829E838D8318861F821A8619861E
:1018B00091E09B87A0E6B1E0BA83A983B701CE018E
:1018C00001960E94BD04B701C8010E94D807F30128
:1018D000808190E0019665E070E00E94DF0C8083DB
:1018E0000E9465013BCFBB274A3031F4992322F493
:1018F000BDE2909581959F4F0C947F0CBB27FB0117
:101900005527AA27880F991FAA1FA41710F0A41BF8
:1019100083955051B9F7A05DAA3308F0A95DA19352
:10192000009779F7B111B1931192CB010C94980CF7
:10193000DC01FC01672F71917723E1F7329704C036
:101940007C916D9370836291AE17BF07C8F30895C1
:101950002F923F924F925F926F927F928F929F92BF
:10196000AF92BF92CF92DF92EF92FF920F931F93AD
:10197000CF93DF93CDB7DEB7CA1BDB0B0FB6F8945E
:10198000DEBF0FBECDBF09942A88398848885F849E
:101990006E847D848C849B84AA84B984C884DF800F
:1019A000EE80FD800C811B81AA81B981CE0FD11DF3
:1019B0000FB6F894DEBF0FBECDBFED01089597FBC3
:1019C000072E16F4009407D077FD09D00E941B0D56
:1019D00007FC05D03EF4909581959F4F0895709532
:1019E00061957F4F0895A1E21A2EAA1BBB1BFD0132
:1019F0000DC0AA1FBB1FEE1FFF1FA217B307E407EE
:101A0000F50720F0A21BB30BE40BF50B661F771F45
:101A1000881F991F1A9469F7609570958095909525
:101A20009B01AC01BD01CF010895EE0FFF1F059092
:101A3000F491E02D0994AA1BBB1B51E107C0AA1F1A
:101A4000BB1FA617B70710F0A61BB70B881F991F5F
:101A50005A95A9F780959095BC01CD010895CF9333
:101A6000DF938230910510F482E090E0E0918002F3
:101A7000F091810220E030E0C0E0D0E0309711F139
:101A80004081518148175907C0F04817590761F440
:101A900082819381209719F09B838A832BC0909336
:101AA00081028093800226C02115310519F042176A
:101AB000530718F49A01BE01DF01EF010280F381A0
:101AC000E02DDCCF2115310509F1281B390B24301D
:101AD000310590F412968D919C91139761157105C3
:101AE00021F0FB019383828304C090938102809351
:101AF0008002FD01329644C0FD01E20FF31F819385
:101B00009193225031092D933C933AC020917E024B
:101B100030917F02232B41F4209102013091030187
:101B200030937F0220937E022091000130910101C9
:101B30002115310541F42DB73EB740910401509174
:101B40000501241B350BE0917E02F0917F02E21724
:101B5000F307A0F42E1B3F0B2817390778F0AC01D0
:101B60004E5F5F4F2417350748F04E0F5F1F5093AD
:101B70007F0240937E028193919302C0E0E0F0E007
:101B8000CF01DF91CF9108950F931F93CF93DF93F0
:101B9000009709F48CC0FC013297138212820091E5
:101BA0008002109181020115110581F4208131819B
:101BB000820F931F20917E0230917F0228173907F0
:101BC00079F5F0937F02E0937E0271C0D80140E086
:101BD00050E0AE17BF0750F412962D913C91139729
:101BE000AD012115310509F1D901F3CF9D01DA01CC
:101BF0003383228360817181860F971F8217930739
:101C000069F4EC0128813981260F371F2E5F3F4F81
:101C1000318320838A819B8193838283452B29F49E
:101C2000F0938102E093800242C01396FC93EE93FE
:101C30001297ED01499159919E01240F351FE2172A
:101C4000F30771F480819181840F951F029611969C
:101C50009C938E938281938113969C938E9312977B
:101C6000E0E0F0E0D80112968D919C9113970097D7
:101C700019F0F8018C01F6CF8D919C9198012E5F9F
:101C80003F4F820F931F20917E0230917F022817D1
:101C9000390769F4309729F410928102109280027A
:101CA00002C01382128210937F0200937E02DF91A2
:101CB000CF911F910F910895A0E0B0E0E2E6FEE021
:101CC0000C94AC0CEC01009721F4CB010E942F0D79
:101CD000B8C0FC01E60FF71F9C0122503109E21742
:101CE000F30708F4ACC0D9010D911C9111970617A8
:101CF0001707B0F00530110508F49FC0C80104971C
:101D00008617970708F499C002501109061B170B94
:101D1000019311936D937C93CF010E94C40D8DC0EC
:101D20005B01A01AB10A4C01800E911EA0918002A5
:101D3000B091810240E050E0E12CF12C109709F4C1
:101D40004AC0A815B905D1F56D907C901197630133
:101D500082E0C80ED11CCA14DB0480F1A3014A1929
:101D60005B096A0182E0C80ED11C1296BC901297E2
:101D70001396AC91B5E0CB16D10440F0B282A383A8
:101D800051834083D9016D937C930AC00E5F1F4F2E
:101D9000C301800F911FF90191838083EB2DFA2FEE
:101DA000E114F10431F0D7011396FC93EE931297EE
:101DB00044C0F0938102E09380023FC08D919C91DA
:101DC00011974817590708F4AC017D0112960D9040
:101DD000BC91A02DB3CF80917E0290917F02881597
:101DE0009905E1F446175707C8F4809100019091D6
:101DF0000101009741F48DB79EB7409104015091C5
:101E00000501841B950BE817F907C8F4F0937F02CE
:101E1000E0937E02F901718360830FC0CB010E94C1
:101E20002F0D7C01009759F0A801BE010E942B0FD5
:101E3000CE010E94C40DC70104C0CE0102C080E0E3
:101E400090E0CDB7DEB7EEE00C94C80C81E090E0F6
:101E5000F8940C943B0FFB01DC0102C001900D9241
:101E600041505040D8F70895FB01DC0101900D92DC
:0A1E70000020E1F70895F894FFCF79
:101E7A0000008202800000000000660400000000EA
:101E8A00910400000000BD0400000000BD04000031
:101E9A000000FC00AD07C500A300B7004301000025
:101EAA0000003002AD0784029C0217022F020000D4
:101EBA000000BD02AD07BD02BD02BD02BD020000A9
:101ECA000000BD02AD0700000000BD0400000000D4
:101EDA00BD0400000000BD040000000D0A004154CA
:101EEA002B430023232323232323232323232323B3
:101EFA0023004D6173746572207374617274656432
:021F0A000000D5
:107E0000112484B714BE81FFF0D085E080938100F7
:107E100082E08093C00088E18093C10086E0809377
:107E2000C20080E18093C4008EE0C9D0259A86E02C
:107E300020E33CEF91E0309385002093840096BBD3
:107E4000B09BFECF1D9AA8958150A9F7CC24DD24C4
:107E500088248394B5E0AB2EA1E19A2EF3E0BF2EE7
:107E6000A2D0813461F49FD0082FAFD0023811F036
:107E7000013811F484E001C083E08DD089C08234E0
:107E800011F484E103C0853419F485E0A6D080C0E4
:107E9000853579F488D0E82EFF2485D0082F10E0AE
:107EA000102F00270E291F29000F111F8ED06801E7
:107EB0006FC0863521F484E090D080E0DECF843638
:107EC00009F040C070D06FD0082F6DD080E0C81688
:107ED00080E7D80618F4F601B7BEE895C0E0D1E017
:107EE00062D089930C17E1F7F0E0CF16F0E7DF06D8
:107EF00018F0F601B7BEE89568D007B600FCFDCFD4
:107F0000A601A0E0B1E02C9130E011968C91119780
:107F100090E0982F8827822B932B1296FA010C0160
:107F200087BEE89511244E5F5F4FF1E0A038BF0790
:107F300051F7F601A7BEE89507B600FCFDCF97BE46
:107F4000E89526C08437B1F42ED02DD0F82E2BD052
:107F50003CD0F601EF2C8F010F5F1F4F84911BD097
:107F6000EA94F801C1F70894C11CD11CFA94CF0C13
:107F7000D11C0EC0853739F428D08EE10CD085E9AC
:107F80000AD08FE07ACF813511F488E018D01DD067
:107F900080E101D065CF982F8091C00085FFFCCF94
:107FA0009093C60008958091C00087FFFCCF809118
:107FB000C00084FD01C0A8958091C6000895E0E648
:107FC000F0E098E1908380830895EDDF803219F02E
:107FD00088E0F5DFFFCF84E1DECF1F93182FE3DFCA
:107FE0001150E9F7F2DF1F91089580E0E8DFEE27F6
:047FF000FF270994CA
:027FFE00040479
:0400000300007E007B
:00000001FF