:100000000C9481000C94A9000C94A9000C94EF06A8
:100010000C94EF060C94EF060C94A9000C94A90024
:100020000C94A9000C94A9000C94A9000C94A900AC
:100030000C94A9000C94A9000C94A9000C94A9009C
:100040000C94E1030C94A9000C94ED020C94C702EB
:100050000C94A9000C94A9000C94A9000C94A9007C
:100060000C94A9000C94A9000002F3010202F5010E
:10007000F701F901FB01FD011B020E021D02100236
:100080001202140216021802DC04DF04EB04E50479
:10009000EE04E804D904E2041105BE0611051405B6
:1000A000CE051206660600000000240027002A0084
:1000B0000000000800020100000304070000000027
:1000C0000000000000000000250028002B000000B8
:1000D000000023002600290004040404040404048E
:1000E00002020202020203030303030301020408E3
:1000F0001020408001020408102001020408102092
:10010000460911241FBECFEFD8E0DEBFCDBF23E0EC
:10011000A4EDB2E001C01D92A43CB207E1F712E0E9
:10012000A0E0B1E0EEE1FFE102C005900D92A43D38
:10013000B107D9F710E0C1E8D0E004C02197FE0173
:100140000E94670DC038D107C9F70E9473090C944B
:100150008D0F0C940000FC01918D828D981761F039
:10016000828DDF01A80FB11D5D968C91928D9F5FEE
:100170009F73928F90E008958FEF9FEF0895FC0199
:10018000918D828D981731F0828DE80FF11D858D4C
:1001900090E008958FEF9FEF0895FC01918D228DDF
:1001A000892F90E0805C9F4F821B91098F73992764
:1001B000089581E293E00E94CD0021E0892B09F4AB
:1001C00020E0822F0895FC01848DDF01A80FB11D6E
:1001D000A35ABF4F2C91848D90E001968F7399277D
:1001E000848FA689B7892C93A089B1898C9180646A
:1001F0008C93938D848D981306C00288F389E02D2B
:1002000080818F7D80830895EF92FF920F931F93DB
:10021000CF93DF93EC0181E0888F9B8D8C8D9813B9
:1002200005C0E889F989808185FD24C0F62E0B8DF3
:1002300010E00F5F1F4F0F731127E02E8C8DE81217
:100240000CC00FB607FCFACFE889F989808185FFD9
:10025000F5CFCE010E94E300F1CF8B8DFE01E80FB8
:10026000F11DE35AFF4FF0820B8FEA89FB898081F1
:10027000806207C0EE89FF896083E889F9898081FF
:100280008064808381E090E0DF91CF911F910F9196
:10029000FF90EF900895CF93DF93EC01888D882332
:1002A000C9F0EA89FB89808185FD05C0A889B989E3
:1002B0008C9186FD0FC00FB607FCF5CF808185FFBE
:1002C000F2CFA889B9898C9185FFEDCFCE010E942C
:1002D000E300E7CFDF91CF91089580E090E0892B94
:1002E00029F00E94D90081110C94000008953FB7B5
:1002F000F8948091190390911A03A0911B03B09177
:100300001C0326B5A89B05C02F3F19F00196A11D1F
:10031000B11D3FBFBA2FA92F982F8827820F911D9B
:10032000A11DB11DBC01CD0142E0660F771F881FE2
:10033000991F4A95D1F70895CF93DF93EC01FB0104
:100340004A8120E030E0241708F03FC08C81B901D9
:10035000680F711DCB016B8170E00E94310DDC01D3
:10036000AA0FBB1F88819981A80FB91F0D90BC915E
:10037000A02D9C918081981325C011969C91119776
:10038000818198131FC012969C91129782819813B5
:1003900019C015969C9115978581981313C01696D0
:1003A0009C911697868198130DC0ED01289638967A
:1003B000D79699918191981308C0CA17DB07C9F79E
:1003C00081E004C02F5F3F4FBECF80E0DF91CF912F
:1003D000089590E0FC013197E830F10580F4EC5C81
:1003E000FF4F0C94670D82E00EC084E00CC085E0E6
:1003F0000AC086E008C087E006C088E004C008950F
:1004000081E001C083E090E0089501978830910574
:1004100088F4845C9F4FFC010C94670D82E0089582
:1004200084E0089585E0089586E0089587E00895C2
:1004300088E00895089581E0089583E0089520916B
:100440001603309117032817390771F4909115039B
:1004500080911403981741F0E0911503F0E0EC52FD
:10046000FD4F808190E008958FEF9FEF08950895EC
:100470001F93CF93DF93DC015C962D913C915D97A8
:100480002115310539F481E090E013969C938E9309
:1004900012973DC05196ED91FC91529750969C91C8
:1004A0005097892F80951FB75E964C915E9741FBC0
:1004B000772770F941FD6095F8944081772311F01A
:1004C000492B01C048234083E9012197F1F748E017
:1004D000508160FF02C0592B01C058235083E901AD
:1004E0002197F1F76695415099F7772321F0908194
:1004F0008923808303C08081982B90831FBF5C96E3
:100500008D919C915D970197F1F721E030E0C90151
:10051000DF91CF911F910895209116033091170319
:100520002817390771F4809114032091150390E086
:10053000805C9F4F821B910960E470E00E94310D46
:10054000089580E090E008952091160330911703FC
:1005500028173907B9F4909115038091140398175F
:1005600089F0E0911503F0E0EC52FD4F808120917D
:10057000150330E02F5F3F4F2F7333272093150370
:1005800090E008958FEF9FEF08950E94780F1F92DB
:100590000F920FB60F9211242F933F934F935F93B7
:1005A0006F937F938F939F93AF93BF93EF93FF933B
:1005B00081E293E00E94E300FF91EF91BF91AF9140
:1005C0009F918F917F916F915F914F913F912F916B
:1005D0000F900FBE0F901F9018951F920F920FB69D
:1005E0000F9211242F938F939F93EF93FF93E0919A
:1005F0003103F09132038081E0913703F0913803A9
:1006000082FD12C0908180913A038F5F8F73209199
:100610003B03821751F0E0913A03F0E0EF5DFC4FAD
:10062000958F80933A0301C08081FF91EF919F9154
:100630008F912F910F900FBE0F901F90189590E003
:10064000FC01E055FF4F3491FC01E451FF4F249130
:10065000FC01E852FF4FE491EE2309F43BC0332341
:1006600039F1333091F038F43130A9F0323001F5FE
:1006700084B58F7D12C0373091F03830A1F034301E
:10068000B9F4809180008F7D03C0809180008F77C6
:10069000809380000DC084B58F7784BD09C08091A0
:1006A000B0008F7703C08091B0008F7D8093B00041
:1006B000F0E0EE0FFF1FEC53FF4FA591B4918FB701
:1006C000F894EC91611103C020952E2301C02E2BCC
:1006D0002C938FBF0895CF93DF9390E0FC01E451FA
:1006E000FF4F2491FC01E852FF4F8491882361F170
:1006F00090E0880F991FFC01EA55FF4FC591D491F6
:10070000FC01EC53FF4FA591B491611109C09FB753
:10071000F8948881209582238883EC912E230BC046
:10072000623061F49FB7F8943881822F80958323DB
:100730008883EC912E2B2C939FBF06C08FB7F89423
:10074000E8812E2B28838FBFDF91CF9108958F9260
:100750009F92AF92BF92CF92DF92EF92FF926B0186
:100760007C010E9477014B015C01C114D104E104BA
:10077000F104F1F00E947701DC01CB01881999099D
:10078000AA09BB09883E9340A105B10570F321E099
:10079000C21AD108E108F10888EE880E83E0981E9D
:1007A000A11CB11CC114D104E104F10419F7DDCF7F
:1007B000FF90EF90DF90CF90BF90AF909F908F9081
:1007C00008951F920F920FB60F9211242F933F930B
:1007D0008F939F93AF93BF9380911D0390911E03BE
:1007E000A0911F03B09120033091180323E0230F41
:1007F0002D3720F40196A11DB11D05C026E8230F59
:100800000296A11DB11D2093180380931D039093A0
:100810001E03A0931F03B0932003809119039091AE
:100820001A03A0911B03B0911C030196A11DB11DD9
:100830008093190390931A03A0931B03B0931C0396
:10084000BF91AF919F918F913F912F910F900FBECC
:100850000F901F901895FC01E05CFF4FC796129215
:10086000E817F907E1F780E008950F931F93CF93FE
:10087000DF93EC018B018A819B810E940502F801C4
:1008800080838D8181838C8182838F8183838E811C
:10089000848389858583888586838A858783FE010D
:1008A0003B96D8011896EB9681918D93EC17FD0736
:1008B000D9F7C801DF91CF911F910F910C942B04B0
:1008C0000F931F93CF93DF93EC018B018A819B8160
:1008D0000E940502F80180838D8181838C8182834F
:1008E0008F8183838E8184838985858388858683B0
:1008F0008A858783FE017396D8011896CE5BDF4FF9
:1009000081918D93EC17FD07D9F7C801DF91CF9145
:100910001F910F910C942B040F931F93CF93DF9390
:100920008C01EB01FC01828193810E940502888386
:10093000F8018581898384818A8387818B8386817D
:100940008C8381858D8380858E8382858F83FE0154
:100950003896CE01C7961192E817F907E1F7CE0154
:10096000DF91CF911F910F910C942B048F929F9246
:10097000AF92BF92CF92DF92EF92FF920F931F93AD
:10098000CF93DF93CDB7DEB7EB970FB6F894DEBF0A
:100990000FBECDBF7C018B01DB018C910E94E90170
:1009A000019788309105F8F48C5B9F4FFC010C9403
:1009B000670D8AE691E014C081E891E011C08FE9EB
:1009C00091E00EC083EC91E00BC081EE91E008C095
:1009D0008FEF91E005C08AE192E002C086E392E0E9
:1009E0000E94F70810C08DE492E00E94E508D8014B
:1009F0006C9170E080E090E04AE00E94050984E696
:100A000092E00E94E508F80180810E94E9010297C6
:100A10008730910508F0AFC1845B9F4FFC010C94B7
:100A2000670D83E090E0ACC1B801C7010E949C0152
:100A300081119EC1D8011796AC9017971596BC905E
:100A4000159716969C9016971196CC901197D12CCD
:100A500012968C91885F02C0CC0CDD1C8A95E2F75F
:100A600080E490E00E94810DF70196838583F1E098
:100A7000CF16D10469F426E030E03C832B83DE827C
:100A8000CD82D886CF82DA86C9862FEF2B87C4C065
:100A9000AA2009F46DC1D70113964C9113971296B1
:100AA0008C911297481321C04423D9F014962C91AD
:100AB00030E0413039F0642F70E0C90101960E94A6
:100AC000310D01C080E0F701848341504283220F41
:100AD000331F0190F081E02DE20FF31F808191819F
:100AE00002C080E090E00E94160E80E490E00E9438
:100AF000810D882E492FF801A82FB92FC801805CDD
:100B00009F4F21912D93E817F907D9F7D701129636
:100B10008C91129713966C9113978617E1F01496A7
:100B20009C91282F30E0F901E90FF11DCF0170E011
:100B30000E94310DFC01EE0FFF1FD7018D919C919A
:100B40001197E80FF91F8082418312968C911297BA
:100B50008F5F12968C93F7016581768185E090E036
:100B60009C838B83DE82CD8281E090E098878F83A7
:100B70008B2D90E028E0290D02C0880F991F2A953F
:100B8000E2F79A878987AA94AB868CE191E09A83F1
:100B90008983CE0101960E948C04EAC0B801C70186
:100BA0000E949C018111E4C0D8011796BC90179750
:100BB0001596DC9015971696AC9016971196CC90DA
:100BC000119712961C91BB2009F4D2C080E490E0EA
:100BD0000E94810DF7019683858326E030E03C83F7
:100BE0002B832C2D30E0185F02C0220F331F1A9583
:100BF000E2F73E832D8321E030E038872F832D2DCF
:100C000030E048E04A0D02C0220F331F4A95E2F758
:100C10003A872987BA94BB8626E131E03A83298353
:100C2000BC01B7CFB801C7010E949C018111A0C0CF
:100C3000D8011796BC9017971596DC9015971696C5
:100C4000AC9016971196CC90119712969C90BB2061
:100C500009F48EC080E490E00E94810DF701968334
:100C6000858327E030E03C832B832C2D30E048E067
:100C7000490D02C0220F331F4A95E2F73E832D83B0
:100C800021E030E038872F832D2D30E048E04A0DF9
:100C900002C0220F331F4A95E2F73A872987BA9498
:100CA000BB8620E131E03A832983F8013896DE01E2
:100CB0001C96085C1F4F21912D93E017F107D9F77F
:100CC000BC01CE0101960E94600452C0B801C70168
:100CD0000E949C0181114CC0D8011796BC901797B7
:100CE0001596DC9015971696AC9016971196CC90A9
:100CF000119712969C90BB20D9F180E490E00E945D
:100D0000810DF7019683858388E090E09C838B8337
:100D10008C2D90E028E0290D02C0880F991F2A959C
:100D2000E2F79E838D8381E090E098878F838D2DFD
:100D300090E028E02A0D02C0880F991F2A95E2F75B
:100D40009A878987BA94BB868AE091E09A838983DF
:100D5000F8013896DE011C96C801C89621912D93A2
:100D6000E817F907D9F7B801CE0101960E943504BA
:100D700082E090E005C080E090E002C081E090E079
:100D8000EB960FB6F894DEBF0FBECDBFDF91CF91CB
:100D90001F910F91FF90EF90DF90CF90BF90AF9099
:100DA0009F908F9008950F931F93CF93DF9300D060
:100DB000CDB7DEB78C01FC0185819681009731F0BB
:100DC00069837A830E94160E7A816981C8010F9027
:100DD0000F90DF91CF911F910F910C94B6041F9249
:100DE0000F920FB60F9211242F933F934F935F935F
:100DF0006F937F938F939F93AF93BF93EF93FF93E3
:100E0000E0911603F0911703309709F451C0968DC5
:100E1000A685B785858591FF04C09C91892329F417
:100E200047C09C91892309F043C0A389B4899C9150
:100E30008589809589238C93868997890197F1F715
:100E4000608D718DA685B785558538E020E0CB0192
:100E50000197F1F7822F90E095958795282F4C9177
:100E6000452309F02068315091F7868D81FD20954A
:100E70008091140390E001968F73992730911503A8
:100E8000381749F0A0911403B0E0AC52BD4F2C9339
:100E90008093140303C0868D8160868F828D938D2D
:100EA0000197F1F7A389B4899C918589892B8C934B
:100EB000FF91EF91BF91AF919F918F917F916F9132
:100EC0005F914F913F912F910F900FBE0F901F9008
:100ED0001895CF93DF93FC01828D938D892B31F18F
:100EE000A0911603B0911703AE17BF07F9F0109742
:100EF00051F05396CD91DC915497988155968C91F1
:100F0000809589238883868D8E7F868F1092140327
:100F100010921503F0931703E0931603A389B48985
:100F20009C918589892B8C9381E001C080E0DF91C1
:100F3000CF910895CF92DF92EF92FF920F931F937C
:100F4000CF93DF936C017A018B01C0E0D0E0CE1526
:100F5000DF0589F0D8016D918D01D601ED91FC91ED
:100F60000190F081E02DC6010995892B11F47E01D5
:100F700002C02196ECCFC701DF91CF911F910F9155
:100F8000FF90EF90DF90CF90089540E450E00C94F4
:100F90009A074F925F926F927F928F929F92AF9239
:100FA000BF92CF92DF92EF92FF920F931F93CF9356
:100FB000DF938C014B010E9469078FB7F894409032
:100FC0001D0350901E0360901F03709020038FBF7D
:100FD00078018FE1E80EF11C5701C0E0D0E0680114
:100FE000AFE5CA0ED11C8FB7F89440911D03509104
:100FF0001E0360911F03709120038FBF4419550990
:1010000066097709F60180819181092E000CAA0BEF
:10101000BB0B84179507A607B70710F48C2F23C0C6
:10102000C8010E948C02892BF1F28FB7F89440908E
:101030001D0350901E0360901F03709020038FBF0C
:101040002196C8010E94A402D5018D935D01C03490
:10105000D10549F6F401D7018D917D018193AC153D
:10106000BD05C9F780E4DF91CF911F910F91FF90EB
:10107000EF90DF90CF90BF90AF909F908F907F9038
:101080006F905F904F9008950F931F93CF93DF93CE
:10109000EC0188819981009729F02A813B812617EC
:1010A000370788F48B016F5F7F4F0E94AE0E009769
:1010B00061F0998388831B830A832C813D81232BD4
:1010C00011F4FC01108281E001C080E0DF91CF913A
:1010D0001F910F910895CF92DF92EF92FF920F939D
:1010E0001F93CF93DF93CDB7DEB728970FB6F89451
:1010F000DEBF0FBECDBF8C01CB014AE09E012F5F4A
:101100003F4F6901B9010E94C50CF6010190002012
:10111000E9F73197EC19FD09D8011496ED90FC9090
:1011200015973097B9F0EE0EFF1EB701C8010E9467
:101130004408882381F0F8012081318184819581E0
:10114000B601820F931F0E94860FD8011596FC925C
:10115000EE92149781E028960FB6F894DEBF0FBE8A
:10116000CDBFDF91CF911F910F91FF90EF90DF9056
:10117000CF900895EF92FF920F931F93CF93DF9339
:10118000EC017B018A01BA010E944408288139815F
:1011900081110DC02115310519F0C9010E94160EEB
:1011A000198218821D821C821B821A8206C01D832E
:1011B0000C83B701C9010E94860FCE01DF91CF9148
:1011C0001F910F91FF90EF900895009769F0FC0137
:1011D00001900020E9F73197AF01481B590BBC0182
:1011E00081E293E00C949A0780E090E00895CF9319
:1011F000DF930E94E508EC0184E692E00E94E50896
:101200008C0F9D1FDF91CF9108958F929F92AF9287
:10121000BF920F931F93CF93DF93CDB7DEB7A19704
:101220000FB6F894DEBF0FBECDBF19A2423008F44E
:101230004AE08E010F5D1F4F842E912CA12CB12C02
:10124000A50194010E94450DE62FB901CA01015084
:101250001109EA3014F4E05D01C0E95CD801EC93B7
:10126000232B242B252B61F7C8010E94E508A196AA
:101270000FB6F894DEBF0FBECDBFDF91CF911F91A7
:101280000F91BF90AF909F908F900895E1E2F3E0AF
:101290001382128288EE93E0A0E0B0E0848395830D
:1012A000A683B78382E291E09183808385EC90E00E
:1012B0009587848784EC90E09787868780EC90E020
:1012C000918B808B81EC90E0938B828B82EC90E011
:1012D000958B848B86EC90E0978B868B118E128E8B
:1012E000138E148E0895CF93DF93CDB7DEB7A097FA
:1012F0000FB6F894DEBF0FBECDBF789484B5826080
:1013000084BD84B5816084BD85B5826085BD85B5A9
:10131000816085BD80916E00816080936E00109227
:1013200081008091810082608093810080918100A2
:101330008160809381008091800081608093800033
:101340008091B10084608093B1008091B000816091
:101350008093B00080917A00846080937A008091BD
:101360007A00826080937A0080917A008160809315
:101370007A0080917A00806880937A001092C10090
:10138000E0913103F091320382E08083E0912D03FC
:10139000F0912E031082E0912F03F09130038FEC37
:1013A000808310923903E0913503F091360386E093
:1013B0008083E0913303F0913403808180618083E6
:1013C000E0913303F0913403808188608083E09161
:1013D0003303F0913403808180688083E09133038C
:1013E000F091340380818F7D80838BE291E00E94B5
:1013F000810D8C01DC0113961C921E92129788EECF
:1014000093E0A0E0B0E0F80184839583A683B783DE
:1014100082E391E091838083178A168A118E108E61
:10142000138E128E158E148E668D6E7F6D7F668F75
:101430006695617081E068278BE00E941F0361E080
:101440008BE00E946B03E7EFF0E0E491D801509647
:10145000EC93E3EEF0E0E491F0E0EE0FFF1FEC53CD
:10146000FF4F85919491F801928B818B60E08AE027
:101470000E946B03D8015E968C9181FD04C061E0EF
:101480008AE00E941F038AE0F8018487E6EFF0E01B
:10149000E491D8011D96EC93E2EEF0E0E491F0E0E7
:1014A000EE0FFF1FE253FF4F85919491F80197874C
:1014B000868788EE93E0E15AFF4F9183808378011D
:1014C000F1E6EF0EF11CD7011D921C9287E692E027
:1014D0000E94F70861E089E00E946B0361E089E007
:1014E0000E941F0360E570E080E090E00E94A70387
:1014F000F801138E128E118E108E178A168A8DE9BE
:1015000091E0958F848F9485963108F04BC02DEB38
:1015100030E0378B268B2BE931E0318F208F2CE2A6
:1015200031E0338F228F20916800983050F031E005
:101530009E3008F430E081E001C0880F3A95EAF768
:1015400001C084E0822B80936800983028F09E30A0
:1015500030F02CE630E005C02DE630E002C02BE68E
:1015600030E0D80154963C932E935397983030F442
:1015700081E001C0880F9A95EAF70EC0292F30E06C
:101580009E3018F42850310902C02E50310981E0F4
:1015900001C0880F2A95EAF7F801858B8DE991E063
:1015A0000197F1F7C8010E946907198E188E1B8EEA
:1015B0001A8E1D8E1C8E44E050E062E872E0CE016F
:1015C00048960E94BA0860E070E0CE0148960E94FA
:1015D0006B0860E070E0CE0148960E946B081B8AA1
:1015E0001A8A1D8A1C8A1F8A1E8A688D798D611548
:1015F000710531F04C8D5D8DCE0142960E94BA0886
:1016000065E070E0CE0142960E946B0881110CC02B
:101610008A899B89009711F00E94160E1B8A1A8AEC
:101620001F8A1E8A1D8A1C8A1D861C861F861E868E
:10163000198A188A6A897B896115710531F04E898A
:101640005F89CE010C960E94BA08D7018D919C91BA
:10165000019711F029E001C025E060E0822F28A366
:101660000E941F0364E670E080E090E00E94A70300
:10167000D801ED91FC91488959896C857D8502805E
:10168000F381E02DC801099564EF71E080E090E0FE
:101690000E94A70361E028A1822F0E941F0364E635
:1016A00070E080E090E00E94A7031A8219821C82F9
:1016B0001B821E821D8240E050E066E672E0CE0191
:1016C00001960E94BA08C8010E948C02892BF9F089
:1016D000C8010E94A4028E8F1F8EED80FE80BFEF96
:1016E000EB1AFB0AB701CE0101960E944408882339
:1016F00051F329813A818D819E81BE01625E7F4FC7
:10170000820F931F0E94860FFE82ED82DCCF4D81F7
:101710005E8169817A8181E293E00E949A0784E682
:1017200092E00E94E50889819A810E94160E8C85BC
:101730009D850E94160E8A899B890E94160E888DAF
:10174000998D0E94160EF801ED59FF4F108281E02D
:10175000319680831182128213828483158286835C
:101760003E96C80185569F4F1192E817F907E1F799
:101770007801ECEDEE1AEEEFFE0AD70112961C92FC
:1017800012978AE013968C93139714961C9284E117
:1017900090E00E94810DF70191838083168215826B
:1017A0001093BF030093BE0387E892E00E94F708FE
:1017B00086E992E00E94F70887E892E00E94F70825
:1017C000CC24C394D12C6090BE037090BF0385EAF3
:1017D00092E00E94E5082301F3E64F0E511CD2016E
:1017E0006C9170E080E090E04AE00E94050984E698
:1017F00092E00E94E50883010C591F4FF20180819D
:10180000D80117968C93179718961C92C8010E94BE
:101810002B04B801C3010E94C5077301B4EEEB0E9F
:10182000F11CB701C3010E94C907803409F09CC0B4
:1018300089EB92E00E94F7085301ECEDAE1AEEEF4F
:10184000BE0AB701C5010E94D3068230910559F046
:101850008430910509F460C0019709F089C0B30193
:101860006C557F4F7DC04301F4EA8F0E911CF3014C
:10187000E951FF4F808190E0982F88273196208191
:10188000820F911D24E030E03C832B839E838D8367
:10189000D886CF82DA86C98631E03B878AE591E037
:1018A0009A838983B401CE0101960E948C04B4010D
:1018B000C3010E94C507312CD2018C91381639F131
:1018C000F801378221E02087C8010E942B04B8016B
:1018D000C3010E94C507B701C3010E94C907803434
:1018E000B1F4B701C5010E94D306039781F4B40196
:1018F000C3010E94C507B701C3010E94C90788231D
:1019000031F0B701C5010E94D306039781F73394E4
:1019100035E03312D1CF2CC083010C551F4FF3019A
:10192000E951FF4F808190E0982F882731962081E0
:10193000820F911DA3E0B0E0BC83AB839E838D83B7
:10194000D886CF82DA86C986B1E0BB87E0E6F1E0CF
:10195000FA83E983B801CE0101960E948C04B80194
:10196000C3010E94C50704C088EC92E00E94F708FA
:10197000D2018C9190E0019665E070E00E94310DFB
:10198000F20180830E946D011ECFBB274A3031F4E3
:10199000992322F4BDE2909581959F4F0C94D10C30
:1019A000BB27FB015527AA27880F991FAA1FA41739
:1019B00010F0A41B83955051B9F7A05DAA3308F02D
:1019C000A95DA193009779F7B111B1931192CB0161
:1019D0000C94EA0CDC01FC01672F71917723E1F78D
:1019E000329704C07C916D9370836291AE17BF07EC
:1019F000C8F308952F923F924F925F926F927F9219
:101A00008F929F92AF92BF92CF92DF92EF92FF920E
:101A10000F931F93CF93DF93CDB7DEB7CA1BDB0BBA
:101A20000FB6F894DEBF0FBECDBF09942A8839885F
:101A300048885F846E847D848C849B84AA84B98466
:101A4000C884DF80EE80FD800C811B81AA81B98172
:101A5000CE0FD11D0FB6F894DEBF0FBECDBFED0186
:101A6000089597FB072E16F4009407D077FD09D050
:101A70000E946D0D07FC05D03EF4909581959F4F17
:101A80000895709561957F4F0895A1E21A2EAA1BC3
:101A9000BB1BFD010DC0AA1FBB1FEE1FFF1FA2171E
:101AA000B307E407F50720F0A21BB30BE40BF50B1B
:101AB000661F771F881F991F1A9469F760957095A4
:101AC000809590959B01AC01BD01CF010895EE0F6B
:101AD000FF1F0590F491E02D0994AA1BBB1B51E157
:101AE00007C0AA1FBB1FA617B70710F0A61BB70B8E
:101AF000881F991F5A95A9F780959095BC01CD0133
:101B00000895CF93DF938230910510F482E090E046
:101B1000E091C203F091C30320E030E0C0E0D0E0E8
:101B2000309711F14081518148175907C0F048178B
:101B3000590761F482819381209719F09B838A83EE
:101B40002BC09093C3038093C20326C02115310597
:101B500019F04217530718F49A01BE01DF01EF0193
:101B60000280F381E02DDCCF2115310509F1281B1E
:101B7000390B2430310590F412968D919C91139776
:101B80006115710521F0FB019383828304C090935A
:101B9000C3038093C203FD01329644C0FD01E20FEE
:101BA000F31F81939193225031092D933C933AC0B6
:101BB0002091C0033091C103232B41F420910201F5
:101BC000309103013093C1032093C00320910001A1
:101BD000309101012115310541F42DB73EB74091F7
:101BE000040150910501241B350BE091C003F091D5
:101BF000C103E217F307A0F42E1B3F0B2817390788
:101C000078F0AC014E5F5F4F2417350748F04E0F58
:101C10005F1F5093C1034093C0038193919302C00F
:101C2000E0E0F0E0CF01DF91CF9108950F931F9393
:101C3000CF93DF93009709F48CC0FC013297138295
:101C400012820091C2031091C3030115110581F4A2
:101C500020813181820F931F2091C0033091C103F5
:101C60002817390779F5F093C103E093C00371C0D9
:101C7000D80140E050E0AE17BF0750F412962D9106
:101C80003C911397AD012115310509F1D901F3CF2D
:101C90009D01DA013383228360817181860F971F52
:101CA0008217930769F4EC0128813981260F371FC9
:101CB0002E5F3F4F318320838A819B819383828370
:101CC000452B29F4F093C303E093C20342C013965B
:101CD000FC93EE931297ED01499159919E01240FC7
:101CE000351FE217F30771F480819181840F951FEE
:101CF000029611969C938E938281938113969C9366
:101D00008E931297E0E0F0E0D80112968D919C91AD
:101D10001397009719F0F8018C01F6CF8D919C91E3
:101D200098012E5F3F4F820F931F2091C003309187
:101D3000C1032817390769F4309729F41092C303B7
:101D40001092C20302C0138212821093C103009347
:101D5000C003DF91CF911F910F910895A0E0B0E0F3
:101D6000E4EBFEE00C94FE0CEC01009721F4CB01B7
:101D70000E94810DB8C0FC01E60FF71F9C012250A4
:101D80003109E217F30708F4ACC0D9010D911C9199
:101D9000119706171707B0F00530110508F49FC01A
:101DA000C80104978617970708F499C002501109D3
:101DB000061B170B019311936D937C93CF010E9427
:101DC000160E8DC05B01A01AB10A4C01800E911E47
:101DD000A091C203B091C30340E050E0E12CF12C8C
:101DE000109709F44AC0A815B905D1F56D907C90FB
:101DF0001197630182E0C80ED11CCA14DB0480F184
:101E0000A3014A195B096A0182E0C80ED11C12962F
:101E1000BC9012971396AC91B5E0CB16D10440F06C
:101E2000B282A38351834083D9016D937C930AC00E
:101E30000E5F1F4FC301800F911FF90191838083B3
:101E4000EB2DFA2FE114F10431F0D7011396FC9336
:101E5000EE93129744C0F093C303E093C2033FC0D4
:101E60008D919C9111974817590708F4AC017D0199
:101E700012960D90BC91A02DB3CF8091C00390918C
:101E8000C10388159905E1F446175707C8F48091F6
:101E9000000190910101009741F48DB79EB74091E8
:101EA000040150910501841B950BE817F907C8F44C
:101EB000F093C103E093C003F901718360830FC005
:101EC000CB010E94810D7C01009759F0A801BE0151
:101ED0000E947D0FCE010E94160EC70104C0CE01E4
:101EE00002C080E090E0CDB7DEB7EEE00C941A0DB2
:101EF00081E090E0F8940C948D0FFB01DC0102C0AE
:101F000001900D9241505040D8F70895FB01DC013B
:0E1F100001900D920020E1F70895F894FFCFA4
:101F1E000000C40380000000000035040000000033
:101F2E006004000000008C04000000008C0400001F
:101F3E00000004019A07CD00AB00BF004B0100006A
:101F4E00000038029A078C02A4021F02370200001A
:101F5E000000C5029A07C502C502C502C5020000EF
:101F6E000000C5029A07000000008C04000000006B
:101F7E008C04000000008C0401014D6573736167D1
:101F8E006520747970653A204143434944454E5467
:101F9E00004D65737361676520747970653A2043EF
:101FAE00414C4C5F4E45494748424F555253004DA8
:101FBE0065737361676520747970653A2043414C8F
:101FCE004C5F4E45494748424F5552535F5245501C
:101FDE004C59004D65737361676520747970653A6D
:101FEE002043414E43454C5F4143434944454E5483
:101FFE00004D65737361676520747970653A20438F
:10200E004F4E4649524D5F4D455353414745004D46
:10201E0065737361676520747970653A20434F4E1E
:10202E004649524D5F50494E47004D657373616787
:10203E006520747970653A204552524F525F4D4576
:10204E005353414745004D6573736167652074793D
:10205E0070653A205245515F50494E4700494E56E1
:10206E00414C4944204D4553534147452054595006
:10207E00453A20000D0A0047726F757020484331B3
:10208E003220696E697469616C697A696E672E2E89
:10209E002E0041542B4300232323232323232323C6
:1020AE002323232323004D6173746572207374619F
:1020BE00727465640043616C6C696E67206E65694D
:1020CE006768626F75722023005265636569766575
:1020DE0064207265706C790020204E6F20726570DE
:0420EE006C79000009
:107E0000112484B714BE81FFF0D085E080938100F7
:107E100082E08093C00088E18093C10086E0809377
:107E2000C20080E18093C4008EE0C9D0259A86E02C
:107E300020E33CEF91E0309385002093840096BBD3
:107E4000B09BFECF1D9AA8958150A9F7CC24DD24C4
:107E500088248394B5E0AB2EA1E19A2EF3E0BF2EE7
:107E6000A2D0813461F49FD0082FAFD0023811F036
:107E7000013811F484E001C083E08DD089C08234E0
:107E800011F484E103C0853419F485E0A6D080C0E4
:107E9000853579F488D0E82EFF2485D0082F10E0AE
:107EA000102F00270E291F29000F111F8ED06801E7
:107EB0006FC0863521F484E090D080E0DECF843638
:107EC00009F040C070D06FD0082F6DD080E0C81688
:107ED00080E7D80618F4F601B7BEE895C0E0D1E017
:107EE00062D089930C17E1F7F0E0CF16F0E7DF06D8
:107EF00018F0F601B7BEE89568D007B600FCFDCFD4
:107F0000A601A0E0B1E02C9130E011968C91119780
:107F100090E0982F8827822B932B1296FA010C0160
:107F200087BEE89511244E5F5F4FF1E0A038BF0790
:107F300051F7F601A7BEE89507B600FCFDCF97BE46
:107F4000E89526C08437B1F42ED02DD0F82E2BD052
:107F50003CD0F601EF2C8F010F5F1F4F84911BD097
:107F6000EA94F801C1F70894C11CD11CFA94CF0C13
:107F7000D11C0EC0853739F428D08EE10CD085E9AC
:107F80000AD08FE07ACF813511F488E018D01DD067
:107F900080E101D065CF982F8091C00085FFFCCF94
:107FA0009093C60008958091C00087FFFCCF809118
:107FB000C00084FD01C0A8958091C6000895E0E648
:107FC000F0E098E1908380830895EDDF803219F02E
:107FD00088E0F5DFFFCF84E1DECF1F93182FE3DFCA
:107FE0001150E9F7F2DF1F91089580E0E8DFEE27F6
:047FF000FF270994CA
:027FFE00040479
:0400000300007E007B
:00000001FF