:100000000C947A000C94A2000C94A2000C9430067C
:100010000C9430060C9430060C94A2000C94A200B0
:100020000C94A2000C94A2000C94A2000C94A200C8
:100030000C94A2000C94A2000C94A2000C94A200B8
:100040000C94E6030C94A2000C94B4030C948E035D
:100050000C94A2000C94A2000C94A2000C94A20098
:100060000C94A2000C94A200AF0A0A0BFD0A040B28
:100070003D0BB20B2A0B0E0B6D0260026F02620287
:100080006402660268026A02E104D404E304D6044E
:10009000D804DA04DC04DE0400000000230026009B
:1000A000290000000000240027002A0000000000B2
:1000B000250028002B0004040404040404040202A4
:1000C00002020202030303030303010204081020D7
:1000D00040800102040810200102040810200000E2
:1000E00000080002010000030407000000000000F7
:1000F00000004E0D11241FBECFEFD8E0DEBFCDBFF4
:1001000024E0A8E4B3E001C01D92A833B207E1F7F0
:1001100013E0A0E0B1E0EAE8F0E202C005900D9241
:10012000A834B107D9F710E0CAE7D0E004C021979E
:10013000FE010E941D0EC937D107C9F70E945E0952
:100140000C9443100C940000FC01918D828D981743
:1001500061F0828DDF01A80FB11D5D968C91928DAB
:100160009F5F9F73928F90E008958FEF9FEF0895A8
:10017000FC01918D828D981731F0828DE80FF11D71
:10018000858D90E008958FEF9FEF0895FC01918D8C
:10019000228D892F90E0805C9F4F821B91098F7385
:1001A0009927089587E993E00E94C60021E0892BF2
:1001B00009F420E0822F0895FC01848DDF01A80F4F
:1001C000B11DA35ABF4F2C91848D90E001968F737F
:1001D0009927848FA689B7892C93A089B1898C919E
:1001E00080648C93938D848D981306C00288F38964
:1001F000E02D80818F7D80830895EF92FF920F9391
:100200001F93CF93DF93EC0181E0888F9B8D8C8DC2
:10021000981305C0E889F989808185FD24C0F62EF0
:100220000B8D10E00F5F1F4F0F731127E02E8C8D89
:10023000E8120CC00FB607FCFACFE889F989808173
:1002400085FFF5CFCE010E94DC00F1CF8B8DFE0142
:10025000E80FF11DE35AFF4FF0820B8FEA89FB890B
:100260008081806207C0EE89FF896083E889F9890F
:1002700080818064808381E090E0DF91CF911F9145
:100280000F91FF90EF900895CF93DF93EC01888D4D
:100290008823C9F0EA89FB89808185FD05C0A8898A
:1002A000B9898C9186FD0FC00FB607FCF5CF808110
:1002B00085FFF2CFA889B9898C9185FFEDCFCE015A
:1002C0000E94DC00E7CFDF91CF91089580E090E0BD
:1002D000892B29F00E94D20081110C94000008950E
:1002E00090E0FC01E252FF4F3491FC01E653FF4FD6
:1002F0002491FC01EA54FF4FE491EE2309F43BC042
:10030000332339F1333091F038F43130A9F0323001
:1003100001F584B58F7D12C0373091F03830A1F0EF
:100320003430B9F4809180008F7D03C080918000CB
:100330008F77809380000DC084B58F7784BD09C00E
:100340008091B0008F7703C08091B0008F7D809343
:10035000B000F0E0EE0FFF1FE455FF4FA591B49100
:100360008FB7F894EC91611103C020952E2301C042
:100370002E2B2C938FBF0895CF93DF9390E0FC0139
:10038000E653FF4F2491FC01EA54FF4F84918823E8
:1003900061F190E0880F991FFC01EE55FF4FC59168
:1003A000D491FC01E455FF4FA591B491611109C0AE
:1003B0009FB7F8948881209582238883EC912E231F
:1003C0000BC0623061F49FB7F8943881822F80951A
:1003D00083238883EC912E2B2C939FBF06C08FB76D
:1003E000F894E8812E2B28838FBFDF91CF91089559
:1003F0003FB7F89480918F0390919003A09191035F
:10040000B091920326B5A89B05C02F3F19F0019625
:10041000A11DB11D3FBFBA2FA92F982F8827820F8A
:10042000911DA11DB11DBC01CD0142E0660F771FDA
:10043000881F991F4A95D1F708958F929F92AF9286
:10044000BF92CF92DF92EF92FF926B017C010E94EC
:10045000F8014B015C01C114D104E104F104F1F095
:100460000E94F801DC01CB0188199909AA09BB098E
:10047000883E9340A105B10570F321E0C21AD1086E
:10048000E108F10888EE880E83E0981EA11CB11CDB
:10049000C114D104E104F10419F7DDCFFF90EF900E
:1004A000DF90CF90BF90AF909F908F90089501976D
:1004B0008830910588F4845C9F4FFC010C941D0EDC
:1004C00082E0089584E0089585E0089586E0089527
:1004D00087E0089588E00895089581E0089583E015
:1004E000089520918C0330918D032817390771F4FA
:1004F00090918B0380918A03981741F0E0918B03D0
:10050000F0E0E65BFC4F808190E008958FEF9FEF75
:10051000089508951F93CF93DF93DC015C962D918E
:100520003C915D972115310539F481E090E01396F7
:100530009C938E9312973DC05196ED91FC915297EA
:1005400050969C915097892F80951FB75E964C913D
:100550005E9741FB772770F941FD6095F8944081E3
:10056000772311F0492B01C048234083E9012197EB
:10057000F1F748E0508160FF02C0592B01C05823B9
:100580005083E9012197F1F76695415099F7772358
:1005900021F090818923808303C08081982B9083F0
:1005A0001FBF5C968D919C915D970197F1F721E0BB
:1005B00030E0C901DF91CF911F91089520918C0304
:1005C00030918D032817390771F480918A032091A7
:1005D0008B0390E0805C9F4F821B910960E470E088
:1005E0000E94E70D089580E090E0089520918C032B
:1005F00030918D0328173907B9F490918B038091BE
:100600008A03981789F0E0918B03F0E0E65BFC4FDA
:10061000808120918B0330E02F5F3F4F2F73332772
:1006200020938B0390E008958FEF9FEF08950E9431
:100630002E10EF92FF920F931F93CF93DF93CDB7BE
:10064000DEB729970FB6F894DEBF0FBECDBF8C0181
:100650007B01FC01EF59FF4F80819181019711F0DF
:1006600029E001C025E060E0822F29870E94700107
:1006700064E670E080E090E00E941D02F701448192
:10068000558160817181C8010E94DB0664EF71E0D1
:1006900080E090E00E941D0261E02985822F0E9487
:1006A000700164E670E080E090E00E941D026AE064
:1006B00073E0CE0101960E942309C8010E94DE0268
:1006C000892B79F0C8010E94F6028F83188641E0D9
:1006D00050E0BE01695F7F4FCE0101960E94700815
:1006E000ECCF4D815E8169817A8187E993E00E9438
:1006F000DB0688E093E00E942D07CE0101960E9460
:10070000E00829960FB6F894DEBF0FBECDBFDF918B
:10071000CF911F910F91FF90EF9008951F920F922C
:100720000FB60F9211242F933F934F935F936F93C4
:100730007F938F939F93AF93BF93EF93FF9387E93B
:1007400093E00E94DC00FF91EF91BF91AF919F91E8
:100750008F917F916F915F914F913F912F910F906A
:100760000FBE0F901F9018951F920F920FB60F9209
:1007700011242F938F939F93EF93FF93E091A703FF
:10078000F091A8038081E091AD03F091AE0382FD6A
:1007900012C090818091B0038F5F8F732091B1035D
:1007A000821751F0E091B003F0E0E956FC4F958FCD
:1007B0008093B00301C08081FF91EF919F918F9151
:1007C0002F910F900FBE0F901F9018951F920F92B0
:1007D0000FB60F9211242F933F938F939F93AF9354
:1007E000BF938091930390919403A0919503B0914E
:1007F000960330918E0323E0230F2D3720F40196CA
:10080000A11DB11D05C026E8230F0296A11DB11D33
:1008100020938E038093930390939403A093950366
:10082000B093960380918F0390919003A0919103D0
:10083000B09192030196A11DB11D80938F039093F7
:100840009003A0939103B0939203BF91AF919F91B6
:100850008F913F912F910F900FBE0F901F90189581
:10086000FC0142814423C9F0248130E0413039F059
:10087000638170E0C90101960E94E70D01C080E02C
:10088000848341504283220F331F0190F081E02D79
:10089000E20FF31F80819181089580E090E0089538
:1008A000FC019B0182816381861799F0448190E06D
:1008B000840F911D70E00E94E70D880F991FA081A1
:1008C000B181A80FB91F2D933C9382818F5F8283E2
:1008D00008958FEF0895FC01E05CFF4FC7961292D8
:1008E000E817F907E1F780E008950F931F93CF937E
:1008F000DF938C01EB01FC01828193810E945702FE
:100900008883F8018581898384818A8387818B83A9
:1009100086818C8381858D8380858E8383858F837B
:10092000FE013F96CE01895B9F4F1192E817F907B0
:10093000E1F7CE01DF91CF911F910F910C946B04E1
:100940000F931F93CF93DF938C01EB01FC01828106
:1009500093810E9457028883F8018581898384816D
:100960008A8387818B8386818C8381858D83808533
:100970008E8382858F83FE013896CE01C7961192B1
:10098000E817F907E1F7CE01DF91CF911F910F91A1
:100990000C946B0490E0FC013197E830F10580F491
:1009A000EC5BFF4F0C941D0E82E00EC084E00CC087
:1009B00085E00AC086E008C087E006C088E004C081
:1009C000089581E001C083E090E00895AF92BF9266
:1009D000CF92DF92EF92FF920F931F93CF93DF930B
:1009E000CDB7DEB762970FB6F894DEBF0FBECDBFAE
:1009F0008C017B016A016130710529F447E0A42E66
:100A000056E0B52E04C02BE0A22E3AE0B32ED8015A
:100A100013961C921E92129788EE93E0A0E0B0E02D
:100A2000F80184839583A683B78383E291E0918361
:100A30008083178A168A118E108E138E128E158E51
:100A4000148E668D6E7F6D7F668F6695617081E016
:100A500068278A2D0E94700161E08A2D0E94BC01E6
:100A60008A2D90E0FC01E653FF4FE491D8015096A7
:100A7000EC93FC01EA54FF4FE491F0E0EE0FFF1F0E
:100A8000E455FF4F85919491F801928B818B60E042
:100A90008B2D0E94BC01D8015E968C9181FD04C013
:100AA00061E08B2D0E947001F801B4862B2D30E09F
:100AB000F901E653FF4FE491D8011D96EC93F9013B
:100AC000EA54FF4FE491F0E0EE0FFF1FE856FF4FAE
:100AD00085919491F80197878687E15AFF4FD182DB
:100AE000C0823296F182E082E114F10429F0EA94A6
:100AF000EF2809F44BC0A3C08BE093E00E943F07AE
:100B000061E089E00E94BC0161E089E00E9470011F
:100B100060E570E080E090E00E941D02C8010E9444
:100B20004D0766E273E0CE010D960E94230960E056
:100B300070E0CE010D960E949E0860E070E0CE014C
:100B40000D960E949E08BE01635F7F4FCE010796FF
:100B50000E94E50865E070E0CE0107960E949E08BD
:100B6000811104C0CE0107960E94CE08BE01695FC4
:100B70007F4FCE0101960E94E508BE016F5F7F4F57
:100B8000C8010E941903CE0101964FC08BE293E089
:100B90000E943F0761E085E00E94BC0161E085E0C2
:100BA0000E94700160E570E080E090E00E941D020C
:100BB000C8010E944D0766E273E0CE010D960E94C7
:100BC000230960E070E0CE010D960E949E08BE01F0
:100BD000635F7F4FCE0107960E94E5084AE0CE0191
:100BE00001967C01BC018DE090E00E947B0DF70135
:100BF00001900020E9F73197AF014E195F09B70165
:100C0000CE0107960E947008811104C0CE0107969C
:100C10000E94CE08BE01695F7F4FC7010E94E508B0
:100C2000B701C8010E941903C7010E94E008CE0164
:100C300007960E94E008CE010D960E94E008629699
:100C40000FB6F894DEBF0FBECDBFDF91CF911F91DD
:100C50000F91FF90EF90DF90CF90BF90AF900895ED
:100C60001F920F920FB60F9211242F933F934F9321
:100C70005F936F937F938F939F93AF93BF93EF9304
:100C8000FF93E0918C03F0918D03309709F451C0EC
:100C9000968DA685B785858591FF04C09C91892393
:100CA00029F447C09C91892309F043C0A389B489E2
:100CB0009C918589809589238C9386899789019752
:100CC000F1F7608D718DA685B785558538E020E0F8
:100CD000CB010197F1F7822F90E095958795282F0A
:100CE0004C91452309F02068315091F7868D81FDA4
:100CF000209580918A0390E001968F739927309117
:100D00008B03381749F0A0918A03B0E0A65BBC4F73
:100D10002C9380938A0303C0868D8160868F828D99
:100D2000938D0197F1F7A389B4899C918589892BCB
:100D30008C93FF91EF91BF91AF919F918F917F9194
:100D40006F915F914F913F912F910F900FBE0F9038
:100D50001F901895CF93DF93FC01828D938D892B83
:100D600031F1A0918C03B0918D03AE17BF07F9F05C
:100D7000109751F05396CD91DC91549798815596E8
:100D80008C91809589238883868D8E7F868F1092A3
:100D90008A0310928B03F0938D03E0938C03A38955
:100DA000B4899C918589892B8C9381E001C080E076
:100DB000DF91CF910895CF92DF92EF92FF920F9340
:100DC0001F93CF93DF936C017A018B01C0E0D0E0D9
:100DD000CE15DF0589F0D8016D918D01D601ED9119
:100DE000FC910190F081E02DC6010995892B11F449
:100DF0007E0102C02196ECCFC701DF91CF911F91F8
:100E00000F91FF90EF90DF90CF9008950F931F9375
:100E1000CF93DF93EC0188819981009729F02A8193
:100E20003B812617370788F48B016F5F7F4F0E9445
:100E3000640F009761F0998388831B830A832C8158
:100E40003D81232B11F4FC01108281E001C080E080
:100E5000DF91CF911F910F910895009769F0FC01E8
:100E600001900020E9F73197AF01481B590BBC01F5
:100E700087E993E00C94DB0680E090E00895CF933F
:100E8000DF930E942D07EC0188E093E00E942D077C
:100E90008C0F9D1FDF91CF910895FC01138E128E50
:100EA000118E108E178A168A8DE991E0958F848FA6
:100EB0008485863108F04DC02DEB30E0378B268BD2
:100EC0002BE931E0318F208F2CE231E0338F228FFC
:100ED00090916800883050F021E08E3008F420E0D6
:100EE00081E001C0880F2A95EAF701C084E0892BD0
:100EF000809368008485883038F08E3040F08631E9
:100F000048F020E030E008C02DE630E005C02BE6D8
:100F100030E002C02CE630E0348B238B883030F494
:100F200091E001C0990F8A95EAF70EC0282F30E0B2
:100F30008E3018F42850310902C02E50310991E04A
:100F400001C0990F2A95EAF7958B848D958D0197AD
:100F5000F1F7CF010C94AA0640E450E00C94DB06B4
:100F6000CF92DF92EF92FF920F931F93CF93DF9375
:100F7000CDB7DEB7A1970FB6F894DEBF0FBECDBFD9
:100F8000282F30E040E050E019A28E010F5D1F4F86
:100F90008AE0C82ED12CE12CF12CCA01B901A7019D
:100FA00096010E94FB0D605DF80162938F0121158F
:100FB00031054105510589F7CF010E942D078C01AC
:100FC00088E093E00E942D07800F911FA1960FB635
:100FD000F894DEBF0FBECDBFDF91CF911F910F916F
:100FE000FF90EF90DF90CF9008954F925F926F92B5
:100FF0007F928F929F92AF92BF92CF92DF92EF92A9
:10100000FF920F931F93CF93DF938C014B010E94AC
:10101000AA068FB7F8944090930350909403609081
:101020009503709096038FBF78018FE1E80EF11C55
:101030005701C0E0D0E06801AFE5CA0ED11C8FB700
:10104000F8944091930350919403609195037091AB
:1010500096038FBF4419550966097709F601808107
:101060009181092E000CAA0BBB0B84179507A607CC
:10107000B70710F48C2F23C0C8010E94DE02892B11
:10108000F1F28FB7F89440909303509094036090DE
:101090009503709096038FBF2196C8010E94F602B7
:1010A000D5018D935D01C034D10549F6F401D70116
:1010B0008D917D018193AC15BD05C9F780E4DF9169
:1010C000CF911F910F91FF90EF90DF90CF90BF9045
:1010D000AF909F908F907F906F905F904F9008950A
:1010E000EF92FF920F931F93CF93DF93FC01248124
:1010F00035816115710511F480E019C04115510564
:10110000A9F07B01EC018A01020F131FB8010E94B4
:101110000607882389F3288139818C819D81B70155
:10112000820F931F0E943C101D830C8381E0DF918E
:10113000CF911F910F91FF90EF900895EF92FF9242
:101140000F931F93CF93DF93CDB7DEB728970FB6DA
:10115000F894DEBF0FBECDBF7C01CB014AE08E010B
:101160000F5F1F4FB8010E947B0DF8010190002016
:10117000E9F73197AF01401B510BB801C7010E943D
:10118000700828960FB6F894DEBF0FBECDBFDF9172
:10119000CF911F910F91FF90EF900895CF93DF9320
:1011A000EC0188819981009711F00E94CC0E198280
:1011B00018821D821C821B821A82DF91CF910895B2
:1011C000FC01808191810C94CC0EEF92FF920F93E1
:1011D0001F93CF93DF93FC0111821082138212823E
:1011E000158214828617970739F1DB010D911C9146
:1011F00011970115110501F1EC011496ED90FC9089
:101200001597B7010E940607811109C0CE01DF9131
:10121000CF911F910F91FF90EF900C94CE08FD821B
:10122000EC82B80188819981DF91CF911F910F9154
:10123000FF90EF900C943C10DF91CF911F910F9194
:10124000FF90EF900895EF92FF920F931F93CF932B
:10125000DF93EC01198218821B821A821D821C8284
:101260006115710521F18B01FB0101900020E9F767
:1012700031977F01E61AF70AB7010E94060781112C
:1012800009C0CE01DF91CF911F910F91FF90EF9098
:101290000C94CE08FD82EC82B80188819981DF919F
:1012A000CF911F910F91FF90EF900C943C10DF9124
:1012B000CF911F910F91FF90EF900895CF93DF93FF
:1012C000CDB7DEB760970FB6F894DEBF0FBECDBFC7
:1012D000789484B5826084BD84B5816084BD85B511
:1012E000826085BD85B5816085BD80916E0081601D
:1012F00080936E00109281008091810082608093C3
:1013000081008091810081608093810080918000C4
:101310008160809380008091B10084608093B100EF
:101320008091B00081608093B00080917A008460E9
:1013300080937A0080917A00826080937A00809115
:101340007A00816080937A0080917A00806880932F
:101350007A001092C100E091A703F091A80382E007
:101360008083E091A303F091A4031082E091A50390
:10137000F091A6038FEC80831092AF03E091AB0352
:10138000F091AC0386E08083E091A903F091AA0379
:10139000808180618083E091A903F091AA0380811C
:1013A00088608083E091A903F091AA03808180681E
:1013B0008083E091A903F091AA0380818F7D8083CF
:1013C00087E491E00E94370E8C018CE090E00E944F
:1013D000370E7C01DC0112961C9212975AE0D52E32
:1013E0001396DC92139714961C9284E190E00E946D
:1013F000370EF701918380831782D086118684E1AE
:1014000090E00E94370ED70116969C938E93159705
:10141000AA24A394B12C1B96BC92AE921A9780E496
:1014200090E00E94370E6C0185E090E09C838B83F6
:101430001E821D8285EA90E098878F83BA86A986EE
:1014400084E18B878AE091E09A838983B601CE019B
:1014500001960E94A004B601C7010E945004F80141
:10146000F182E08283E690E00E94370E7C0144E640
:1014700050E060E070E00E94E604D8011396FC9210
:10148000EE92129783E690E00E94370E7C0142E3D1
:1014900050E061E070E00E94E604F801F582E48229
:1014A00081E086831782108611868287138684875F
:1014B0007496C801CD961192E817F907E1F7F80183
:1014C000EA5BFE4F81E08083109349030093480359
:1014D0008FE391E00E943F078DE491E00E943F0777
:1014E0008FE391E00E943F07AA24A394B12C992492
:1014F000939488248A940091480310914903980199
:101500002A5B3E4F3E872D87D9018C91882309F4B1
:1015100058C17801B6E8EB0EF11CB701F8018281E1
:1015200093810E94F507803409F012C2D801CD9052
:10153000DC908BE591E00E942D0786E791E00E9408
:101540003F07F70180810E94CA0401978830910506
:1015500008F023C18C5C9F4FFC010C941D0E8CE79E
:1015600091E00E943F077801FDE8EF0EF11CD701E2
:101570008C91843039F083E991E00E942D07F701C6
:10158000808111C1D6011B961C921E921A97F801F8
:10159000E257FF4F8081813029F487EB91E00E9470
:1015A0003F07DEC1F6018281811105C085ED91E022
:1015B0000E943F07CDC184EF91E00E943F07680180
:1015C000F6E4CF0ED11CD801ED90FC908EE092E0B5
:1015D0000E942D07F70182810E94B007D701129661
:1015E0008C91882309F4B4C1C7010E943004FC0126
:1015F000D6019C01205C3F4FD9C0F60182859385BE
:10160000892B09F0A5C1D1C1D6011B96BC92AE921F
:101610001A979EC1F601B386A2869AC188E292E02B
:101620000E943F0780E490E00E94370ED701FC0142
:1016300098012A533F4F4D914193A217B307D9F711
:10164000BC01C6010E945004D6011B96BC92AE920A
:101650001A9786C184E592E00E943F0780E490E0FB
:101660000E94370ED701FC0198012A533F4F4D913C
:101670004193A217B307D9F76DC0D6011A968D9181
:101680009C911B97892B09F063C189E792E00E9426
:101690003F0780E490E00E94370EFC013801B6EC71
:1016A0006B0E711CD7012D912193A615B705D9F7A3
:1016B000BC01C6010E9450041801E7E82E0E311C3F
:1016C000D1018C9190E0980128573F4FF90140815A
:1016D000485F02C0880F991F4A95E2F70297F0F51C
:1016E00080E490E02F87388B0E94370E2C0186E033
:1016F00090E09C838B83BE82AD82B886AF82BA862F
:10170000A9868B86A0E1B1E0BA83A983B201CE019C
:1017100001960E94A004B201C6010E945004F1018A
:10172000808190E02F853889D9012C91285F02C0F3
:10173000880F991F2A95E2F7892B81F480E490E0C5
:101740000E94370EFC01D7012D917D012193A61532
:10175000B705C9F7BC01C6010E945004F601B38663
:10176000A286FEC0D6011A968D919C911B97892B5B
:1017700009F0EEC08EE992E00E943F0780E490E01D
:101780000E94370ED701FC0198012A533F4F4D911B
:101790004193A217B307D9F7DDCF87EC92E00E94FF
:1017A0002D07D7018C910E94B007D2C041914D9373
:1017B000E217F307D9F7009709F4FEC00E94CC0E98
:1017C000FBC0B8016A5F7E4FF801848195810E9459
:1017D000F507803409F0A3C08EED92E00E943F0728
:1017E0007801F6E8EF0EF11CD8016D907C908BE546
:1017F00091E00E942D0785EF92E00E943F07F701DC
:1018000080810E94CA048330910509F417C164F4F1
:1018100098012A533F4F69018130910509F4D3C0E3
:10182000029709F4E7C068C08430910509F490C0BC
:10183000059709F061C0280137E8430E511CD20119
:101840008C9190E01801B8E82B0E311CF101208139
:10185000285F02C0880F991F2A95E2F7029708F0C7
:101860004BC080E490E00E94370E6C0126E030E02F
:101870003C832B83BE82AD82B886AF82BA86A986AE
:101880008B8680E191E09A838983B601CE0101962F
:101890000E94A004B601C3010E94500480E490E0BD
:1018A0000E94370EFC016801A6ECCA0ED11CD701BC
:1018B0002D912193AC15BD05D9F7BC01C3010E9440
:1018C0005004F201808190E0D1012C91285F02C088
:1018D000880F991F2A95E2F7892B09F0B3C080E49D
:1018E00090E00E94370EFC01D7012D917D012193DC
:1018F000AC15BD05C9F70EC080E490E00E94370E1C
:10190000D701FC0198012A533F4F4D914193A217F3
:10191000B307D9F7BC01C3010E94500493C0D8019A
:10192000ED91FC9111978781882391F01D961C926F
:101930001D971E961C927801B6E0EB0EF11CC701B4
:101940000E946B04B701F801848195810E94AC0765
:10195000AD85BE858C9189258C930E946601CBCD87
:10196000F801E757FF4F808190E0982F8827319644
:101970002081820F911DE4E0F0E0FC83EB839E83E5
:101980008D83B886AF82BA86A9869B8627E131E02F
:101990003A832983B8016A5B7F4FCE0101960E948A
:1019A000A004B8016A537F4F08C0B8016A537F4F43
:1019B000F80182819381CACFB601D80112968D9128
:1019C0009C911397C3CFE2E0F0E0FC83EB831E828F
:1019D0001D8298878F839A8789879B862DE131E0C6
:1019E0003A8329831C86B601CE0101960E947504B4
:1019F000B6014CC0F801E080F180D70117968C91B8
:101A0000882309F4A5CF8CEF92E00E942D07F701FF
:101A100087810E94B007C70105960E943004FC012F
:101A2000D6019C01205C3F4F41914D93E217F30793
:101A3000D9F7009789F10E94CC0E2EC0B8016A53E5
:101A40007F4F81CF7801F6ECEF0EF11CF801E75FD4
:101A5000FE4F808190E0982F882731962081820F59
:101A6000911D24E030E03C832B839E838D83B886D8
:101A7000AF82BA86A9869B8687E191E09A838983A3
:101A8000B701CE0101960E94A004B701D8011496B7
:101A90008D919C9115975ACFB60155CFE7E9F3E0A8
:101AA0001382128288EE93E0A0E0B0E084839583F5
:101AB000A683B78383E391E09183808385EC90E0F4
:101AC0009587848784EC90E09787868780EC90E008
:101AD000918B808B81EC90E0938B828B82EC90E0F9
:101AE000958B848B86EC90E0978B868B118E128E73
:101AF000138E148E0895BB274A3031F4992322F4B3
:101B0000BDE2909581959F4F0C94870DBB27FB01FB
:101B10005527AA27880F991FAA1FA41710F0A41BE6
:101B200083955051B9F7A05DAA3308F0A95DA19340
:101B3000009779F7B111B1931192CB010C94A00DDC
:101B4000DC01FC01672F71917723E1F7329704C024
:101B50007C916D9370836291AE17BF07C8F30895AF
:101B60002F923F924F925F926F927F928F929F92AD
:101B7000AF92BF92CF92DF92EF92FF920F931F939B
:101B8000CF93DF93CDB7DEB7CA1BDB0B0FB6F8944C
:101B9000DEBF0FBECDBF09942A88398848885F848C
:101BA0006E847D848C849B84AA84B984C884DF80FD
:101BB000EE80FD800C811B81AA81B981CE0FD11DE1
:101BC0000FB6F894DEBF0FBECDBFED01089597FBB1
:101BD000072E16F4009407D077FD09D00E94230E3B
:101BE00007FC05D03EF4909581959F4F0895709520
:101BF00061957F4F0895A1E21A2EAA1BBB1BFD0120
:101C00000DC0AA1FBB1FEE1FFF1FA217B307E407DB
:101C1000F50720F0A21BB30BE40BF50B661F771F33
:101C2000881F991F1A9469F7609570958095909513
:101C30009B01AC01BD01CF010895EE0FFF1F059080
:101C4000F491E02D0994AA1BBB1B51E107C0AA1F08
:101C5000BB1FA617B70710F0A61BB70B881F991F4D
:101C60005A95A9F780959095BC01CD010895CF9321
:101C7000DF938230910510F482E090E0E091360429
:101C8000F091370420E030E0C0E0D0E0309711F16F
:101C90004081518148175907C0F04817590761F42E
:101CA00082819381209719F09B838A832BC0909324
:101CB00037048093360426C02115310519F04217E8
:101CC000530718F49A01BE01DF01EF010280F3818E
:101CD000E02DDCCF2115310509F1281B390B24300B
:101CE000310590F412968D919C91139761157105B1
:101CF00021F0FB019383828304C090933704809387
:101D00003604FD01329644C0FD01E20FF31F8193BA
:101D10009193225031092D933C933AC02091340481
:101D200030913504232B41F42091020130910301BD
:101D30003093350420933404209100013091010147
:101D40002115310541F42DB73EB740910401509162
:101D50000501241B350BE0913404F0913504E217A2
:101D6000F307A0F42E1B3F0B2817390778F0AC01BE
:101D70004E5F5F4F2417350748F04E0F5F1F50939B
:101D80003504409334048193919302C0E0E0F0E085
:101D9000CF01DF91CF9108950F931F93CF93DF93DE
:101DA000009709F48CC0FC013297138212820091D3
:101DB0003604109137040115110581F42081318119
:101DC000820F931F2091340430913504281739076E
:101DD00079F5F0933504E093340471C0D80140E004
:101DE00050E0AE17BF0750F412962D913C91139717
:101DF000AD012115310509F1D901F3CF9D01DA01BA
:101E00003383228360817181860F971F8217930726
:101E100069F4EC0128813981260F371F2E5F3F4F6F
:101E2000318320838A819B8193838283452B29F48C
:101E3000F0933704E093360442C01396FC93EE937C
:101E40001297ED01499159919E01240F351FE21718
:101E5000F30771F480819181840F951F029611968A
:101E60009C938E938281938113969C938E93129769
:101E7000E0E0F0E0D80112968D919C9113970097C5
:101E800019F0F8018C01F6CF8D919C9198012E5F8D
:101E90003F4F820F931F209134043091350428174F
:101EA000390769F4309729F41092370410923604F8
:101EB00002C0138212821093350400933404DF9120
:101EC000CF911F910F910895A0E0B0E0EAE6FFE006
:101ED0000C94B40DEC01009721F4CB010E94370E55
:101EE000B8C0FC01E60FF71F9C0122503109E21730
:101EF000F30708F4ACC0D9010D911C911197061796
:101F00001707B0F00530110508F49FC0C801049709
:101F10008617970708F499C002501109061B170B82
:101F2000019311936D937C93CF010E94CC0E8DC0D1
:101F30005B01A01AB10A4C01800E911EA0913604DB
:101F4000B091370440E050E0E12CF12C109709F4F7
:101F50004AC0A815B905D1F56D907C901197630121
:101F600082E0C80ED11CCA14DB0480F1A3014A1917
:101F70005B096A0182E0C80ED11C1296BC901297D0
:101F80001396AC91B5E0CB16D10440F0B282A38396
:101F900051834083D9016D937C930AC00E5F1F4F1C
:101FA000C301800F911FF90191838083EB2DFA2FDC
:101FB000E114F10431F0D7011396FC93EE931297DC
:101FC00044C0F0933704E09336043FC08D919C9158
:101FD00011974817590708F4AC017D0112960D902E
:101FE000BC91A02DB3CF8091340490913504881515
:101FF0009905E1F446175707C8F4809100019091C4
:102000000101009741F48DB79EB7409104015091B2
:102010000501841B950BE817F907C8F4F093350404
:10202000E0933404F901718360830FC0CB010E94F7
:10203000370E7C01009759F0A801BE010E943310B1
:10204000CE010E94CC0EC70104C0CE0102C080E0C8
:1020500090E0CDB7DEB7EEE00C94D00D81E090E0DB
:10206000F8940C944310FB01DC0102C001900D9226
:1020700041505040D8F70895FB01DC0101900D92CA
:0A2080000020E1F70895F894FFCF67
:10208A0000003804800000000000A00400000000E6
:10209A00A0040100000000A0040000000075040074
:1020AA000000008A02DB06DE02F6027102890200E3
:1020BA00000000FD00DB06C600A400B800440123AE
:1020CA0023232323232323232323232300536C6142
:1020DA0076652073746172746564004D657373610B
:1020EA0067652072656365697665642C20736F7510
:1020FA007263653A200067726F7570002020547908
:10210A0070653A2043414C4C5F4E454947424F5512
:10211A00525300202020204D657373616765206645
:10212A006F7220616E6F74686572206E6569676888
:10213A00626F75723A200020202020436F6E666914
:10214A00726D696E67206D6173746572206D657357
:10215A007361676500202020204E6F206D657373C0
:10216A006167657320666F7220746865206D61739C
:10217A007465720053656E64696E67206D6573736A
:10218A0061676520746F206D6173746572004D65B7
:10219A0073736167657320666F7220746865206D5A
:1021AA0061737465723A2000416464696E67204302
:1021BA00414E43454C5F4143434944454E54206D8B
:1021CA0065737361676520746F2074686520517543
:1021DA0065756500416464696E67204143434944FB
:1021EA00454E54206D65737361676520746F207462
:1021FA00686520517565756500416464696E67207C
:10220A005245515F50494E47206D6573736167654A
:10221A0020746F2074686520517565756500416486
:10222A0064696E6720434F4E4649524D5F50494E8E
:10223A0047206D65737361676520746F20746865E4
:10224A0020517565756500496E76616C6964206D0B
:10225A0065737361676520747970653A200042720C
:10226A0069646765206D657373616765207265636C
:10227A006576656400627269646765004C697374A7
:10228A002073697A653A20000D0A0047726F7570EB
:10229A00204843313220696E697469616C697A69D0
:1022AA006E672E2E2E0041542B43004272696467DA
:1022BA0065204843313220696E697469616C697AB4
:0822CA00696E672E2E2E000044
:00000001FF
