:100000000C9472000C949A000C949A000C94E203E5
:100010000C94E2030C94E2030C949A000C949A0062
:100020000C949A000C949A000C949A000C949A00E8
:100030000C949A000C949A000C949A000C949A00D8
:100040000C94BA060C949A000C94C6050C94A00566
:100050000C949A000C949A000C949A000C949A00B8
:100060000C949A000C949A00B300A600B500A80066
:10007000AA00AC00AE00B000CE00C100D000C300AA
:10008000C500C700C900CB00000000002300260007
:10009000290000000000240027002A0000000000C2
:1000A000250028002B0004040404040404040202B4
:1000B00002020202030303030303010204081020E7
:1000C00040800102040810200102040810200000F2
:1000D0000008000201000003040700000000000007
:1000E0000000150C11241FBECFEFD8E0DEBFCDBF3E
:1000F00022E0AEE8B1E001C01D92AE37B207E1F7F1
:1001000011E0A0E0B1E0E8E1FEE102C005900D924F
:10011000AE38B107D9F710E0C2E7D0E004C02197AC
:10012000FE010E94E40CC137D107C9F70E9487097C
:100130000C940A0F0C94000090E0FC013197E83019
:10014000F10580F4EC5CFF4F0C94E40C82E00EC0EF
:1001500084E00CC085E00AC086E008C087E006C0E5
:1001600088E004C0089581E001C083E090E0089534
:1001700001978830910588F4845C9F4FFC010C94B2
:10018000E40C82E0089584E0089585E0089586E017
:10019000089587E0089588E00895089581E008951E
:1001A00083E008952091D0013091D10128173907BB
:1001B00071F49091CF018091CE01981741F0E091B8
:1001C000CF01F0E0E257FE4F808190E008958FEF7D
:1001D0009FEF089508951F93CF93DF93DC015C9602
:1001E0002D913C915D972115310539F481E090E026
:1001F00013969C938E9312973DC05196ED91FC916E
:10020000529750969C915097892F80951FB75E9674
:100210004C915E9741FB772770F941FD6095F8940A
:100220004081772311F0492B01C048234083E90125
:100230002197F1F748E0508160FF02C0592B01C0BF
:1002400058235083E9012197F1F76695415099F7BA
:10025000772321F090818923808303C08081982BAC
:1002600090831FBF5C968D919C915D970197F1F7EC
:1002700021E030E0C901DF91CF911F9108952091D5
:10028000D0013091D1012817390771F48091CE0146
:100290002091CF0190E0805C9F4F821B910960E428
:1002A00070E00E94AE0C089580E090E008952091E7
:1002B000D0013091D10128173907B9F49091CF01BD
:1002C0008091CE01981789F0E091CF01F0E0E257DC
:1002D000FE4F80812091CF0130E02F5F3F4F2F7381
:1002E00033272093CF0190E008958FEF9FEF08957B
:1002F000EF92FF920F931F93CF938C017B01FC0130
:10030000EF59FF4F80819181019711F0C9E001C041
:10031000C5E060E08C2F0E94F80564E670E080E0A4
:1003200090E00E948006F7014481558160817181CF
:10033000C8010E94040764EF71E080E090E00E9431
:10034000800661E08C2F0E94F80564E670E080E092
:1003500090E0CF911F910F91FF90EF900C94800649
:10036000FC019B0182816381861799F0448190E0B2
:10037000840F911D70E00E94AE0C880F991FA08120
:10038000B181A80FB91F2D933C9382818F5F828327
:1003900008958FEF0895CF92DF92EF92FF92FC01C4
:1003A000DC01A05CBF4F9C01295C3F4F1E92A2174D
:1003B000B307E1F7DF014FEF5FEFBA018D914827F7
:1003C00088E090E06A017B01F694E794D794C794A3
:1003D0004170552766277727709560955095419510
:1003E0005F4F6F4F7F4F40725378687B7D7E4C2507
:1003F0005D256E257F25019729F7A217B307F1F632
:10040000409550956095709547AF56AF65AF74AF06
:1004100080E4FF90EF90DF90CF9008950F931F93AB
:10042000CF93DF938C01EB01FC01828193810E94C9
:10043000B8008883F8018581898384818A838781D4
:100440008B8386818C8381858D8380858E83838554
:100450008F83FE013F96CE01895B9F4F1192E81773
:10046000F907E1F7CE01DF91CF911F910F910C9425
:10047000CB010F931F93CF93DF938C01EB01FC0112
:10048000828193810E94B8008883F80185818983E5
:1004900084818A8387818B8386818C8381858D8308
:1004A00080858E8382858F83FE013896CE01C79624
:1004B0001192E817F907E1F7CE01DF91CF911F9173
:1004C0000F910C94CB01EF92FF920F931F93CF9358
:1004D000DF93CDB7DEB729970FB6F894DEBF0FBE16
:1004E000CDBF7B01DB01D7968E010F5F1F4FF80157
:1004F00089E0800F9D9191938E13FCCFC7010E94DC
:10050000CB0199E0292F30E0F801E20FF31FD7016A
:10051000A20FB31F4081D7968C91481302C091500F
:10052000F1CF80E090E029960FB6F894DEBF0FBEC1
:10053000CDBFDF91CF911F910F91FF90EF90089564
:10054000AF92BF92CF92DF92EF92FF920F931F93E1
:10055000CF93DF93CDB7DEB762970FB6F894DEBFC7
:100560000FBECDBF8C017B016A016130710529F49A
:1005700047E0A42E56E0B52E04C02BE0A22E3AE0B0
:10058000B32ED80113961C921E92129788EE93E018
:10059000A0E0B0E0F80184839583A683B7838AE066
:1005A00091E091838083178A168A118E108E138EA4
:1005B000128E158E148E668D6E7F6D7F668F66959A
:1005C000617081E068278A2D0E94F80561E08A2D1C
:1005D0000E9444068A2D90E0FC01E654FF4FE4910E
:1005E000D8015096EC93FC01EA55FF4FE491F0E0FE
:1005F000EE0FFF1FE456FF4F85919491F801928B07
:10060000818B60E08B2D0E944406D8015E968C9110
:1006100081FD04C061E08B2D0E94F805F801B486CD
:100620002B2D30E0F901E654FF4FE491D8011D96DF
:10063000EC93F901EA55FF4FE491F0E0EE0FFF1F54
:10064000E857FF4F85919491F80197878687E15A83
:10065000FF4FD182C0823296F182E082E114F10430
:1006600029F0EA94EF2809F447C09BC061E089E0D3
:100670000E94440661E089E00E94F80560E570E0B0
:1006800080E090E00E948006C8010E94760763E641
:1006900071E0CE010D960E944C0960E070E0CE0141
:1006A0000D960E94C70860E070E0CE010D960E9492
:1006B000C708BE01635F7F4FCE0107960E940E09F7
:1006C00065E070E0CE0107960E94C708811104C062
:1006D000CE0107960E94F708BE01695F7F4FCE01E9
:1006E00001960E940E09BE016F5F7F4FC8010E94F4
:1006F0007801CE0101964BC061E085E00E9444067E
:1007000061E085E00E94F80560E570E080E090E03F
:100710000E948006C8010E94760763E671E0CE0160
:100720000D960E944C0960E070E0CE010D960E948B
:10073000C708BE01635F7F4FCE0107960E940E0976
:100740004AE0CE0101967C01BC018BE090E00E9462
:10075000420CF70101900020E9F73197AF014E19E3
:100760005F09B701CE0107960E949908811104C064
:10077000CE0107960E94F708BE01695F7F4FC7014F
:100780000E940E09B701C8010E947801C7010E94AA
:100790000909CE0107960E940909CE010D960E9413
:1007A000090962960FB6F894DEBF0FBECDBFDF9188
:1007B000CF911F910F91FF90EF90DF90CF90BF905E
:1007C000AF9008951F920F920FB60F9211242F939E
:1007D0003F934F935F936F937F938F939F93AF93C9
:1007E000BF93EF93FF93E091D001F091D101309747
:1007F00009F451C0968DA685B785858591FF04C003
:100800009C91892329F447C09C91892309F043C016
:10081000A389B4899C918589809589238C93868945
:1008200097890197F1F7608D718DA685B7855585FC
:1008300038E020E0CB010197F1F7822F90E0959509
:100840008795282F4C91452309F02068315091F766
:10085000868D81FD20958091CE0190E001968F7369
:1008600099273091CF01381749F0A091CE01B0E01F
:10087000A257BE4F2C938093CE0103C0868D81601A
:10088000868F828D938D0197F1F7A389B4899C910E
:100890008589892B8C93FF91EF91BF91AF919F91A7
:1008A0008F917F916F915F914F913F912F910F9019
:1008B0000FBE0F901F901895CF93DF93FC01828D90
:1008C000938D892B31F1A091D001B091D101AE1758
:1008D000BF07F9F0109751F05396CD91DC915497E2
:1008E000988155968C91809589238883868D8E7FFB
:1008F000868F1092CE011092CF01F093D101E09338
:10090000D001A389B4899C918589892B8C9381E03E
:1009100001C080E0DF91CF910895FC01918D828D1F
:10092000981761F0828DDF01A80FB11D5D968C9143
:10093000928D9F5F9F73928F90E008958FEF9FEF4E
:100940000895FC01918D828D981731F0828DE80F0A
:10095000F11D858D90E008958FEF9FEF0895FC01C4
:10096000918D228D892F90E0805C9F4F821B910991
:100970008F73992708958DED91E00E94AF0421E0D7
:10098000892B09F420E0822F0895FC01848DDF017A
:10099000A80FB11DA35ABF4F2C91848D90E00196F2
:1009A0008F739927848FA689B7892C93A089B189E1
:1009B0008C9180648C93938D848D981306C00288EB
:1009C000F389E02D80818F7D80830895EF92FF92DF
:1009D0000F931F93CF93DF93EC0181E0888F9B8D62
:1009E0008C8D981305C0E889F989808185FD24C024
:1009F000F62E0B8D10E00F5F1F4F0F731127E02EA7
:100A00008C8DE8120CC00FB607FCFACFE889F98983
:100A1000808185FFF5CFCE010E94C504F1CF8B8D7B
:100A2000FE01E80FF11DE35AFF4FF0820B8FEA89B8
:100A3000FB898081806207C0EE89FF896083E88935
:100A4000F98980818064808381E090E0DF91CF919B
:100A50001F910F91FF90EF900895CF93DF93EC01DA
:100A6000888D8823C9F0EA89FB89808185FD05C0CE
:100A7000A889B9898C9186FD0FC00FB607FCF5CF08
:100A8000808185FFF2CFA889B9898C9185FFEDCF50
:100A9000CE010E94C504E7CFDF91CF91089580E099
:100AA00090E0892B29F00E94BB0481110C94000076
:100AB00008953FB7F8948091D3019091D401A0910B
:100AC000D501B091D60126B5A89B05C02F3F19F0DE
:100AD0000196A11DB11D3FBFBA2FA92F982F8827BE
:100AE000820F911DA11DB11DBC01CD0142E0660F19
:100AF000771F881F991F4A95D1F70895FC014281FD
:100B00004423C9F0248130E0413039F0638170E042
:100B1000C90101960E94AE0C01C080E0848341505F
:100B20004283220F331F0190F081E02DE20FF31F6B
:100B300080819181089580E090E008950E94F50EF3
:100B40001F920F920FB60F9211242F933F934F9342
:100B50005F936F937F938F939F93AF93BF93EF9325
:100B6000FF938DED91E00E94C504FF91EF91BF913D
:100B7000AF919F918F917F916F915F914F913F9135
:100B80002F910F900FBE0F901F9018951F920F92EC
:100B90000FB60F9211242F938F939F93EF93FF9390
:100BA000E091ED01F091EE018081E091F301F0918F
:100BB000F40182FD12C090818091F6018F5F8F73E6
:100BC0002091F701821751F0E091F601F0E0E35235
:100BD000FE4F958F8093F60101C08081FF91EF91C8
:100BE0009F918F912F910F900FBE0F901F9018958E
:100BF00090E0FC01E253FF4F3491FC01E654FF4FBB
:100C00002491FC01EA55FF4FE491EE2309F43BC027
:100C1000332339F1333091F038F43130A9F03230E8
:100C200001F584B58F7D12C0373091F03830A1F0D6
:100C30003430B9F4809180008F7D03C080918000B2
:100C40008F77809380000DC084B58F7784BD09C0F5
:100C50008091B0008F7703C08091B0008F7D80932A
:100C6000B000F0E0EE0FFF1FE456FF4FA591B491E6
:100C70008FB7F894EC91611103C020952E2301C029
:100C80002E2B2C938FBF0895CF93DF9390E0FC0120
:100C9000E654FF4F2491FC01EA55FF4F84918823CD
:100CA00061F190E0880F991FFC01EE56FF4FC5914E
:100CB000D491FC01E456FF4FA591B491611109C094
:100CC0009FB7F8948881209582238883EC912E2306
:100CD0000BC0623061F49FB7F8943881822F809501
:100CE00083238883EC912E2B2C939FBF06C08FB754
:100CF000F894E8812E2B28838FBFDF91CF91089540
:100D00008F929F92AF92BF92CF92DF92EF92FF921B
:100D10006B017C010E9459054B015C01C114D10497
:100D2000E104F104F1F00E945905DC01CB018819BE
:100D30009909AA09BB09883E9340A105B10570F342
:100D400021E0C21AD108E108F10888EE880E83E09C
:100D5000981EA11CB11CC114D104E104F10419F7BF
:100D6000DDCFFF90EF90DF90CF90BF90AF909F903E
:100D70008F9008951F920F920FB60F9211242F9308
:100D80003F938F939F93AF93BF938091D90190919D
:100D9000DA01A091DB01B091DC013091D20123E0B6
:100DA000230F2D3720F40196A11DB11D05C026E8A3
:100DB000230F0296A11DB11D2093D2018093D9016A
:100DC0009093DA01A093DB01B093DC018091D30111
:100DD0009091D401A091D501B091D6010196A11DA9
:100DE000B11D8093D3019093D401A093D501B0930A
:100DF000D601BF91AF919F918F913F912F910F900D
:100E00000FBE0F901F901895CF92DF92EF92FF9236
:100E10000F931F93CF93DF936C017A018B01C0E096
:100E2000D0E0CE15DF0589F0D8016D918D01D60196
:100E3000ED91FC910190F081E02DC6010995892B7F
:100E400011F47E0102C02196ECCFC701DF91CF9152
:100E50001F910F91FF90EF90DF90CF9008950F9327
:100E60001F93CF93DF93EC0188819981009729F03C
:100E70002A813B812617370788F48B016F5F7F4FEC
:100E80000E942B0E009761F0998388831B830A834D
:100E90002C813D81232B11F4FC01108281E001C0E3
:100EA00080E0DF91CF911F910F910895009769F035
:100EB000FC0101900020E9F73197AF01481B590B65
:100EC000BC018DED91E00C94040780E090E0089562
:100ED000CF93DF930E945607EC018BE891E00E94CC
:100EE00056078C0F9D1FDF91CF910895FC01138E43
:100EF000128E118E108E178A168A8DE991E0958FC9
:100F0000848F8485863108F04DC02DEB30E0378B1F
:100F1000268B2BE931E0318F208F2CE231E0338FAB
:100F2000228F90916800883050F021E08E3008F4D4
:100F300020E081E001C0880F2A95EAF701C084E033
:100F4000892B809368008485883038F08E3040F09B
:100F5000863148F020E030E008C02DE630E005C0E2
:100F60002BE630E002C02CE630E0348B238B883057
:100F700030F491E001C0990F8A95EAF70EC0282F4E
:100F800030E08E3018F42850310902C02E5031095B
:100F900091E001C0990F2A95EAF7958B848D958D84
:100FA0000197F1F7CF010C945C0440E450E00C94FD
:100FB0000407CF92DF92EF92FF920F931F93CF938C
:100FC000DF93CDB7DEB7A1970FB6F894DEBF0FBEA3
:100FD000CDBF282F30E040E050E019A28E010F5D18
:100FE0001F4F8AE0C82ED12CE12CF12CCA01B90187
:100FF000A70196010E94C20C605DF80162938F0107
:10100000211531054105510589F7CF010E94560789
:101010008C018BE891E00E945607800F911FA196EA
:101020000FB6F894DEBF0FBECDBFDF91CF911F91F9
:101030000F91FF90EF90DF90CF9008954F925F92C5
:101040006F927F928F929F92AF92BF92CF92DF92D8
:10105000EF92FF920F931F93CF93DF938C014B017D
:101060000E945C048FB7F8944090D9015090DA0147
:101070006090DB017090DC018FBF78018FE1E80E9A
:10108000F11C5701C0E0D0E06801AFE5CA0ED11CE9
:101090008FB7F8944091D9015091DA016091DB014A
:1010A0007091DC018FBF4419550966097709F60173
:1010B00080819181092E000CAA0BBB0B8417950728
:1010C000A607B70710F48C2F23C0C8010E943F0168
:1010D000892BF1F28FB7F8944090D9015090DA0142
:1010E0006090DB017090DC018FBF2196C8010E94E7
:1010F0005701D5018D935D01C034D10549F6F40146
:10110000D7018D917D018193AC15BD05C9F780E4B0
:10111000DF91CF911F910F91FF90EF90DF90CF90D3
:10112000BF90AF909F908F907F906F905F904F9007
:101130000895EF92FF920F931F93CF93DF93FC01DB
:10114000248135816115710511F480E019C04115C4
:101150005105A9F07B01EC018A01020F131FB801B0
:101160000E942F07882389F3288139818C819D81F2
:10117000B701820F931F0E94030F1D830C8381E030
:10118000DF91CF911F910F91FF90EF900895EF9213
:10119000FF920F931F93CF93DF93CDB7DEB72897BE
:1011A0000FB6F894DEBF0FBECDBF7C01CB014AE085
:1011B0008E010F5F1F4FB8010E94420CF801019091
:1011C0000020E9F73197AF01401B510BB801C7016F
:1011D0000E94990828960FB6F894DEBF0FBECDBFC7
:1011E000DF91CF911F910F91FF90EF900895CF93D2
:1011F000DF93EC0188819981009711F00E94930D93
:10120000198218821D821C821B821A82DF91CF9163
:101210000895FC01808191810C94930DEF92FF92CF
:101220000F931F93CF93DF93FC01118210821382DF
:101230001282158214828617970739F1DB010D910E
:101240001C9111970115110501F1EC011496ED9017
:10125000FC901597B7010E942F07811109C0CE019C
:10126000DF91CF911F910F91FF90EF900C94F708B1
:10127000FD82EC82B80188819981DF91CF911F9125
:101280000F91FF90EF900C94030FDF91CF911F917E
:101290000F91FF90EF900895EF92FF920F931F939D
:1012A000CF93DF93EC01198218821B821A821D8270
:1012B0001C826115710521F18B01FB010190002059
:1012C000E9F731977F01E61AF70AB7010E942F0765
:1012D000811109C0CE01DF91CF911F910F91FF9035
:1012E000EF900C94F708FD82EC82B8018881998117
:1012F000DF91CF911F910F91FF90EF900C94030F0E
:10130000DF91CF911F910F91FF90EF900895CF93B0
:10131000DF93CDB7DEB72E970FB6F894DEBF0FBEC2
:10132000CDBF789484B5826084BD84B5816084BD6E
:1013300085B5826085BD85B5816085BD80916E0073
:10134000816080936E0010928100809181008260A4
:1013500080938100809181008160809381008091E1
:1013600080008160809380008091B10084608093D0
:10137000B1008091B00081608093B00080917A00CC
:10138000846080937A0080917A00826080937A00F2
:1013900080917A00816080937A0080917A008068E1
:1013A00080937A001092C100E091ED01F091EE017E
:1013B00082E08083E091E901F091EA011082E091FE
:1013C000EB01F091EC018FEC80831092F501E0913C
:1013D000F101F091F20186E08083E091EF01F0915C
:1013E000F001808180618083E091EF01F091F00154
:1013F000808188608083E091EF01F091F00180812D
:1014000080688083E091EF01F091F00180818F7D11
:10141000808387E491E00E94FE0C8C018CE090E0D8
:101420000E94FE0C6C01DC0112961C9212978AE05D
:10143000F82E1396FC92139714961C9284E190E078
:101440000E94FE0CF601918380831782F08611863C
:1014500084E190E00E94FE0CD60116969C938E9338
:10146000159781E090E01B969C938E931A9780E4E9
:1014700090E00E94FE0C5C0185E090E09C838B83F1
:101480001E821D8285EA90E098878F831A861986CE
:1014900084E18B8782E491E09A838983B501CE0150
:1014A00001960E943902B501C6010E94B001F801FF
:1014B000D182C08283E690E00E94FE0C6C0144E67B
:1014C00050E060E070E00E94A002D8011396DC9228
:1014D000CE92129783E690E00E94FE0C6C0142E3EC
:1014E00050E061E070E00E94A002F801D582C48261
:1014F00081E08683178210861186128613861486F1
:101500007496C801CD961192E817F907E1F7F80132
:10151000EA5BFE4F81E080831093D8010093D701EE
:1015200064E0462E512CFF24F3947DE4C72E71E035
:10153000D72EE3E0AE2EB12CF3E58F2EF1E09F2EF7
:101540000091D7011091D801C8018A5B9E4F9E87F8
:101550008D87DC018C91882309F488C03801B6E8B6
:101560006B0E711CB301F801828193810E941E08E9
:10157000803409F046C141E050E0B301D8018D91BB
:101580009C910E9463028230910509F451C04CF590
:10159000892B09F036C1F801E757FF4F808190E0B1
:1015A000982F882731962081820F911DBC82AB82B3
:1015B0009E838D8318861F821A861986FB869A82DF
:1015C0008982B8016A5B7F4FCE0101960E94390281
:1015D000B8016A537F4FD80112968D919C91139751
:1015E0000EC18330910519F00597F1F00AC1F80199
:1015F000E757FF4F808190E0982F88273196208110
:10160000820F911D5C824B829E838D8318861F8280
:101610001A861986FB86DA82C982B8016A5B7F4F17
:10162000CE0101960E943902B8016A537F4FF2C081
:10163000D8018D919C91FC012281222309F4E1C003
:101640003801F6E46F0E711C0E947E05FC01D30187
:101650009C01205C3F4F41914D93E217F307D9F76E
:10166000009709F4D6C00E94930DD3C0B8016A5FF9
:101670007E4FD80114968D919C9115970E941E085B
:10168000803409F0A5C088E691E00E94680740E038
:1016900050E0B8016A577F4FF801808191810E9424
:1016A00063028330910591F034F4009781F1029741
:1016B00009F467C0A6C08430910509F448C00597B5
:1016C00009F09FC0B8016A537F4F96C03801F6EC0D
:1016D0006F0E711CF801E75FFE4F808190E0982F3C
:1016E000882731962081820F911D5C824B829E83D8
:1016F0008D8318861F821A861986FB86DA82C98234
:10170000B301CE0101960E943902B30188C03801AD
:10171000B6EC6B0E711CF801E75FFE4F808190E024
:10172000982F882731962081820F911DBC82AB8231
:101730009E838D8318861F821A861986FB869A825D
:101740008982B301CE0101960E94390254C082E021
:1017500090E09C838B831E821D8218861F821A86CE
:101760001986FB86A9E5B1E0BA83A9831C863801F6
:10177000B6EC6B0E711CB301CE0101960E940E02F5
:101780003AC0D8016D907C90F30187818823C9F11C
:101790001801F6EC2F0E311C8FE791E00E945607DE
:1017A000D30117968C910E94D907C30105960E9418
:1017B0007E05FC01D1019C01205C3F4F41914D937E
:1017C000E217F307D9F7009749F10E94930D26C05D
:1017D000D801ED91FC9111978781882391F01D9696
:1017E0001C921D971E961C923801B6E06B0E711C60
:1017F000C3010E94CB01B301F801848195810E944D
:10180000D507AD85BE858C918F258C930E944F05A1
:1018100097CEB301F80182819381F1CFB101D80154
:1018200014968D919C911597EACFEDEDF1E013821E
:10183000128288EE93E0A0E0B0E084839583A683D3
:10184000B7838AE191E09183808385EC90E095876E
:10185000848784EC90E09787868780EC90E0918B7A
:10186000808B81EC90E0938B828B82EC90E0958B67
:10187000848B86EC90E0978B868B118E128E138E64
:10188000148E0895BB274A3031F4992322F4BDE227
:10189000909581959F4F0C944E0CBB27FB015527CB
:1018A000AA27880F991FAA1FA41710F0A41B8395BD
:1018B0005051B9F7A05DAA3308F0A95DA193009734
:1018C00079F7B111B1931192CB010C94670CDC0143
:1018D000FC01672F71917723E1F7329704C07C9167
:1018E0006D9370836291AE17BF07C8F308952F926E
:1018F0003F924F925F926F927F928F929F92AF92A0
:10190000BF92CF92DF92EF92FF920F931F93CF93EC
:10191000DF93CDB7DEB7CA1BDB0B0FB6F894DEBF83
:101920000FBECDBF09942A88398848885F846E84A9
:101930007D848C849B84AA84B984C884DF80EE80F3
:10194000FD800C811B81AA81B981CE0FD11D0FB6FC
:10195000F894DEBF0FBECDBFED01089597FB072EB3
:1019600016F4009407D077FD09D00E94EA0C07FC1A
:1019700005D03EF4909581959F4F0895709561959F
:101980007F4F0895A1E21A2EAA1BBB1BFD010DC0BB
:10199000AA1FBB1FEE1FFF1FA217B307E407F5071F
:1019A00020F0A21BB30BE40BF50B661F771F881FFB
:1019B000991F1A9469F760957095809590959B0191
:1019C000AC01BD01CF010895EE0FFF1F0590F4910A
:1019D000E02D0994AA1BBB1B51E107C0AA1FBB1F26
:1019E000A617B70710F0A61BB70B881F991F5A95AB
:1019F000A9F780959095BC01CD010895CF93DF9311
:101A00008230910510F482E090E0E0917C02F09148
:101A10007D0220E030E0C0E0D0E0309711F140815D
:101A2000518148175907C0F04817590761F482815E
:101A30009381209719F09B838A832BC090937D021A
:101A400080937C0226C02115310519F042175307F7
:101A500018F49A01BE01DF01EF010280F381E02D4D
:101A6000DCCF2115310509F1281B390B2430310554
:101A700090F412968D919C9113976115710521F048
:101A8000FB019383828304C090937D0280937C0248
:101A9000FD01329644C0FD01E20FF31F8193919343
:101AA000225031092D933C933AC020917A02309113
:101AB0007B02232B41F420910201309103013093EA
:101AC0007B0220937A0220910001309101012115BF
:101AD000310541F42DB73EB7409104015091050105
:101AE000241B350BE0917A02F0917B02E217F30799
:101AF000A0F42E1B3F0B2817390778F0AC014E5F7E
:101B00005F4F2417350748F04E0F5F1F50937B023D
:101B100040937A028193919302C0E0E0F0E0CF011C
:101B2000DF91CF9108950F931F93CF93DF93009789
:101B300009F48CC0FC0132971382128200917C025E
:101B400010917D020115110581F420813181820FF0
:101B5000931F20917A0230917B022817390779F57B
:101B6000F0937B02E0937A0271C0D80140E050E02C
:101B7000AE17BF0750F412962D913C911397AD010B
:101B80002115310509F1D901F3CF9D01DA01338324
:101B9000228360817181860F971F8217930769F4F2
:101BA000EC0128813981260F371F2E5F3F4F31838B
:101BB00020838A819B8193838283452B29F4F09330
:101BC0007D02E0937C0242C01396FC93EE93129741
:101BD000ED01499159919E01240F351FE217F3073A
:101BE00071F480819181840F951F029611969C93C8
:101BF0008E938281938113969C938E931297E0E04B
:101C0000F0E0D80112968D919C911397009719F0EE
:101C1000F8018C01F6CF8D919C9198012E5F3F4F7A
:101C2000820F931F20917A0230917B022817390787
:101C300069F4309729F410927D0210927C0202C060
:101C40001382128210937B0200937A02DF91CF916C
:101C50001F910F910895A0E0B0E0E1E3FEE00C9445
:101C60007B0CEC01009721F4CB010E94FE0CB8C064
:101C7000FC01E60FF71F9C0122503109E217F30720
:101C800008F4ACC0D9010D911C91119706171707E4
:101C9000B0F00530110508F49FC0C80104978617FD
:101CA000970708F499C002501109061B170B0193FE
:101CB00011936D937C93CF010E94930D8DC05B01B6
:101CC000A01AB10A4C01800E911EA0917C02B09125
:101CD0007D0240E050E0E12CF12C109709F44AC05D
:101CE000A815B905D1F56D907C901197630182E03C
:101CF000C80ED11CCA14DB0480F1A3014A195B0988
:101D00006A0182E0C80ED11C1296BC9012971396FD
:101D1000AC91B5E0CB16D10440F0B282A3835183DD
:101D20004083D9016D937C930AC00E5F1F4FC3019E
:101D3000800F911FF90191838083EB2DFA2FE1141D
:101D4000F10431F0D7011396FC93EE93129744C03F
:101D5000F0937D02E0937C023FC08D919C9111979E
:101D60004817590708F4AC017D0112960D90BC91FB
:101D7000A02DB3CF80917A0290917B0288159905AE
:101D8000E1F446175707C8F48091000190910101D2
:101D9000009741F48DB79EB7409104015091050121
:101DA000841B950BE817F907C8F4F0937B02E093C6
:101DB0007A02F901718360830FC0CB010E94FE0C8F
:101DC0007C01009759F0A801BE010E94FA0ECE01D5
:101DD0000E94930DC70104C0CE0102C080E090E0D4
:101DE000CDB7DEB7EEE00C94970C81E090E0F8946C
:101DF0000C940A0FFB01DC0102C001900D924150CE
:101E00005040D8F70895FB01DC0101900D920020AD
:081E1000E1F70895F894FFCFFB
:101E180000007E02800000000000EB0004073F0184
:101E28005701D200EA0000000000E6040407AF04EE
:101E38008D04A1042D05000000009E0504079E05E1
:101E48009E059E059E05000000009E0504070000F3
:101E58000000390200000000000000000039020004
:101E68000000003902000000000E020000000039E6
:101E780002000041542B4300427269646765206D7B
:101E88006573736167652072656365766564004C88
:0E1E98006973742073697A653A20000D0A00A0
:107E0000112484B714BE81FFF0D085E080938100F7
:107E100082E08093C00088E18093C10086E0809377
:107E2000C20080E18093C4008EE0C9D0259A86E02C
:107E300020E33CEF91E0309385002093840096BBD3
:107E4000B09BFECF1D9AA8958150A9F7CC24DD24C4
:107E500088248394B5E0AB2EA1E19A2EF3E0BF2EE7
:107E6000A2D0813461F49FD0082FAFD0023811F036
:107E7000013811F484E001C083E08DD089C08234E0
:107E800011F484E103C0853419F485E0A6D080C0E4
:107E9000853579F488D0E82EFF2485D0082F10E0AE
:107EA000102F00270E291F29000F111F8ED06801E7
:107EB0006FC0863521F484E090D080E0DECF843638
:107EC00009F040C070D06FD0082F6DD080E0C81688
:107ED00080E7D80618F4F601B7BEE895C0E0D1E017
:107EE00062D089930C17E1F7F0E0CF16F0E7DF06D8
:107EF00018F0F601B7BEE89568D007B600FCFDCFD4
:107F0000A601A0E0B1E02C9130E011968C91119780
:107F100090E0982F8827822B932B1296FA010C0160
:107F200087BEE89511244E5F5F4FF1E0A038BF0790
:107F300051F7F601A7BEE89507B600FCFDCF97BE46
:107F4000E89526C08437B1F42ED02DD0F82E2BD052
:107F50003CD0F601EF2C8F010F5F1F4F84911BD097
:107F6000EA94F801C1F70894C11CD11CFA94CF0C13
:107F7000D11C0EC0853739F428D08EE10CD085E9AC
:107F80000AD08FE07ACF813511F488E018D01DD067
:107F900080E101D065CF982F8091C00085FFFCCF94
:107FA0009093C60008958091C00087FFFCCF809118
:107FB000C00084FD01C0A8958091C6000895E0E648
:107FC000F0E098E1908380830895EDDF803219F02E
:107FD00088E0F5DFFFCF84E1DECF1F93182FE3DFCA
:107FE0001150E9F7F2DF1F91089580E0E8DFEE27F6
:047FF000FF270994CA
:027FFE00040479
:0400000300007E007B
:00000001FF