:100000000C9482000C94AA000C94AA000C94B106E3
:100010000C94B1060C94B1060C94AA000C94AA009E
:100020000C94AA000C94AA000C94AA000C94AA00A8
:100030000C94AA000C94AA000C94AA000C94AA0098
:100040000C9479030C94AA000C9485020C945F0222
:100050000C94AA000C94AA000C94AA000C94AA0078
:100060000C94AA000C94AA00A80FAB0FB90FB30F01
:10007000BC0FB60FA50FB00FB301A601B501A801C3
:10008000AA01AC01AE01B001BA04AD04BC04AF04D6
:10009000B104B304B504B704EA04EF04FB04F504A7
:1000A000FE04F804E704F204000000002500280024
:1000B0002B00000000002300260029000404040493
:1000C0000404040402020202020203030303030302
:1000D00001020408102040800102040810200102DF
:1000E0000408102000000000240027002A0000005F
:1000F00000080002010000030407000000000000E7
:100100000000711011241FBECFEFD8E0DEBFCDBFBD
:1001100024E0AAEDB3E001C01D92A53DB207E1F7CE
:1001200013E0A0E0B1E0EAECFBE202C005900D9222
:10013000AA3DB107D9F710E0C2E8D0E004C021978A
:10014000FE010E94AF13C138D107C9F70E947B0995
:100150000C94E3150C940000FC01918D828D98178E
:1001600061F0828DDF01A80FB11D5D968C91928D9B
:100170009F5F9F73928F90E008958FEF9FEF089598
:10018000FC01918D828D981731F0828DE80FF11D61
:10019000858D90E008958FEF9FEF0895FC01918D7C
:1001A000228D892F90E0805C9F4F821B91098F7375
:1001B0009927089582E394E00E94CE0021E0892BE4
:1001C00009F420E0822F0895FC01848DDF01A80F3F
:1001D000B11DA35ABF4F2C91848D90E001968F736F
:1001E0009927848FA689B7892C93A089B1898C918E
:1001F00080648C93938D848D981306C00288F38954
:10020000E02D80818F7D80830895EF92FF920F9380
:100210001F93CF93DF93EC0181E0888F9B8D8C8DB2
:10022000981305C0E889F989808185FD24C0F62EE0
:100230000B8D10E00F5F1F4F0F731127E02E8C8D79
:10024000E8120CC00FB607FCFACFE889F989808163
:1002500085FFF5CFCE010E94E400F1CF8B8DFE012A
:10026000E80FF11DE35AFF4FF0820B8FEA89FB89FB
:100270008081806207C0EE89FF896083E889F989FF
:1002800080818064808381E090E0DF91CF911F9135
:100290000F91FF90EF900895CF93DF93EC01888D3D
:1002A0008823C9F0EA89FB89808185FD05C0A8897A
:1002B000B9898C9186FD0FC00FB607FCF5CF808100
:1002C00085FFF2CFA889B9898C9185FFEDCFCE014A
:1002D0000E94E400E7CFDF91CF91089580E090E0A5
:1002E000892B29F00E94DA0081110C9400000895F6
:1002F0003FB7F89480912A0490912B04A0912C048C
:10030000B0912D0426B5A89B05C02F3F19F001968A
:10031000A11DB11D3FBFBA2FA92F982F8827820F8B
:10032000911DA11DB11DBC01CD0142E0660F771FDB
:10033000881F991F4A95D1F7089501978830910534
:1003400088F4845C9F4FFC010C94AF1382E0089505
:1003500084E0089585E0089586E0089587E0089593
:1003600088E00895089581E0089583E0089520913C
:100370002704309128042817390771F49091260436
:1003800080912504981741F0E0912604F0E0EB51AC
:10039000FC4F808190E008958FEF9FEF08950895BE
:1003A0001F93CF93DF93DC015C962D913C915D9779
:1003B0002115310539F481E090E013969C938E93DA
:1003C00012973DC05196ED91FC91529750969C9199
:1003D0005097892F80951FB75E964C915E9741FB91
:1003E000772770F941FD6095F8944081772311F0EB
:1003F000492B01C048234083E9012197F1F748E0E8
:10040000508160FF02C0592B01C058235083E9017D
:100410002197F1F76695415099F7772321F0908164
:100420008923808303C08081982B90831FBF5C96B3
:100430008D919C915D970197F1F721E030E0C90122
:10044000DF91CF911F9108952091270430912804C6
:100450002817390771F4809125042091260490E033
:10046000805C9F4F821B910960E470E00E949B13A7
:10047000089580E090E008952091270430912804A9
:1004800028173907B9F4909126048091250498170C
:1004900089F0E0912604F0E0EB51FC4F808120913F
:1004A000260430E02F5F3F4F2F733327209326041D
:1004B00090E008958FEF9FEF08950E94C0151F925E
:1004C0000F920FB60F9211242F933F934F935F9388
:1004D0006F937F938F939F93AF93BF93EF93FF930C
:1004E00082E394E00E94E400FF91EF91BF91AF910D
:1004F0009F918F917F916F915F914F913F912F913C
:100500000F900FBE0F901F9018951F920F920FB66D
:100510000F9211242F938F939F93EF93FF93E0916A
:100520004204F09143048081E0914804F091490431
:1005300082FD12C0908180914B048F5F8F73209158
:100540004C04821751F0E0914B04F0E0EE5CFB4F5D
:10055000958F80934B0401C08081FF91EF919F9113
:100560008F912F910F900FBE0F901F90189590E0D4
:10057000FC01E251FF4F3491FC01E053FF4F249105
:10058000FC01E454FF4FE491EE2309F43BC0332314
:1005900039F1333091F038F43130A9F0323001F5CF
:1005A00084B58F7D12C0373091F03830A1F03430EF
:1005B000B9F4809180008F7D03C0809180008F7797
:1005C000809380000DC084B58F7784BD09C0809171
:1005D000B0008F7703C08091B0008F7D8093B00012
:1005E000F0E0EE0FFF1FE855FF4FA591B4918FB7D4
:1005F000F894EC91611103C020952E2301C02E2B9D
:100600002C938FBF0895CF93DF9390E0FC01E053CC
:10061000FF4F2491FC01E454FF4F8491882361F142
:1006200090E0880F991FFC01EC51FF4FC591D491C8
:10063000FC01E855FF4FA591B491611109C09FB726
:10064000F8948881209582238883EC912E230BC017
:10065000623061F49FB7F8943881822F80958323AC
:100660008883EC912E2B2C939FBF06C08FB7F894F4
:10067000E8812E2B28838FBFDF91CF9108958F9231
:100680009F92AF92BF92CF92DF92EF92FF926B0157
:100690007C010E9478014B015C01C114D104E1048A
:1006A000F104F1F00E947801DC01CB01881999096D
:1006B000AA09BB09883E9340A105B10570F321E06A
:1006C000C21AD108E108F10888EE880E83E0981E6E
:1006D000A11CB11CC114D104E104F10419F7DDCF50
:1006E000FF90EF90DF90CF90BF90AF909F908F9052
:1006F00008951F920F920FB60F9211242F933F93DC
:100700008F939F93AF93BF9380912E0490912F046A
:10071000A0913004B09131043091290423E0230FDB
:100720002D3720F40196A11DB11D05C026E8230F29
:100730000296A11DB11D2093290480932E0490934D
:100740002F04A0933004B093310480912A04909137
:100750002B04A0912C04B0912D040196A11DB11D74
:1007600080932A0490932B04A0932C04B0932D041F
:10077000BF91AF919F918F913F912F910F900FBE9D
:100780000F901F9018950F931F93CF93DF931F9295
:10079000CDB7DEB78C0169830E94021369816817A7
:1007A00041F0C8010F90DF91CF911F910F910C94F0
:1007B0000A130F90DF91CF911F910F910895CF925F
:1007C000DF92EF92FF92FC01DC01A05CBF4F9C0125
:1007D000295C3F4F1E92A217B307E1F7DF014FEFED
:1007E0005FEFBA018D91482788E090E06A017B01B4
:1007F000F694E794D794C7944170552766277727D6
:1008000070956095509541955F4F6F4F7F4F407247
:100810005378687B7D7E4C255D256E257F2501976D
:1008200029F7A217B307F1F640955095609570959A
:1008300047AF56AF65AF74AF80E4FF90EF90DF90A5
:10084000CF9008950F931F93CF93DF93EC018B010B
:100850008A819B810E949D01F80180838D81818323
:100860008C8182838F8183838E8184838985858334
:10087000888586838A858783FE013B96D8011896F2
:10088000EB9681918D93EC17FD07D9F7C801DF91A5
:10089000CF911F910F910C94DF030F931F93CF9370
:1008A000DF93EC018B018A819B810E949D01F801FD
:1008B00080838D8181838C8182838F8183838E81EC
:1008C000848389858583888586838A858783FE01DD
:1008D0007396D8011896CE5BDF4F81918D93EC17FC
:1008E000FD07D9F7C801DF91CF911F910F910C94AB
:1008F000DF030F931F93CF93DF938C01EB01FC0178
:10090000828193810E949D018883F801858189837A
:1009100084818A8387818B8386818C8381858D8383
:1009200080858E8382858F83FE013896CE01C7969F
:100930001192E817F907E1F7CE01DF91CF911F91EE
:100940000F910C94DF0390E0FC013197E830F10542
:1009500080F4EC5BFF4F0C94AF1382E00EC084E098
:100960000CC085E00AC086E008C087E006C088E0C9
:1009700004C0089581E001C083E090E008957F9273
:100980008F929F92AF92BF92CF92DF92EF92FF929F
:100990000F931F93CF93DF93CDB7DEB7EB970FB6CF
:1009A000F894DEBF0FBECDBF6C018B018091DC03DC
:1009B000882379F1FB0180810E94A304019788308C
:1009C0009105F8F4845B9F4FFC010C94AF1388EA07
:1009D00092E002C08FEB92E00E94C1071AC08DED39
:1009E00092E0FACF81E093E0F7CF8FE193E0F4CF8C
:1009F0008DE393E0F1CF88E593E0EECF84E793E0D9
:100A0000EBCF8BE893E00E94D307F80180810E942E
:100A10001608F80180810E94A3047C01049709F460
:100A200052C085E0E816F1045CF4E2E0EE16F10451
:100A300009F449C0F3E0EF16F10409F4D3C0CFC0C4
:100A400087E0E816F10409F441C0E8E0EE16F1048D
:100A500009F486C0F6E0EF16F10409F0C0C0F80111
:100A60009780A580B12C8681885F02C0AA0CBB1C30
:100A70008A95E2F7818190E02281285F8C0102C093
:100A8000000F111F2A95E2F780E490E00E94C9133D
:100A9000F601968385832091DA033091DB03FC8293
:100AA000EB821E830D8338872F83BA86A9869A949A
:100AB0009B8624E531E03A832983BC01CE0101966F
:100AC0000E94790441C083E090E08EC0F8017780F5
:100AD0008580912C8681885F02C0880C991C8A953C
:100AE000E2F7A180B12C8281885F02C0AA0CBB1CF6
:100AF0008A95E2F780E490E00E94C913BC01F601F8
:100B0000968385838091DA039091DB03FC82EB82EC
:100B1000BE82AD8298878F839A8689869FEF970DD4
:100B20009B878EE491E09A838983F8013896DE01F1
:100B30001C96085C1F4F81918D93E017F107D9F740
:100B4000CE0101960E944D04F6016581768140E454
:100B500050E082E394E00E945C0782E090E044C0B1
:100B6000F8017780A580B12C8681885F02C0AA0C2D
:100B7000BB1C8A95E2F78180912C8281885F02C03C
:100B8000880C991C8A95E2F780E490E00E94C913D2
:100B9000BC01F601968385838091DA039091DB0393
:100BA000FC82EB829E828D8298878F83BA86A9868B
:100BB0009FEF970D9B8788E491E09A838983F801E2
:100BC0003896DE011C96085C1F4F81918D93E017CB
:100BD000F107D9F7CE0101960E942204B5CF80E03B
:100BE00090E002C081E090E0EB960FB6F894DEBF93
:100BF0000FBECDBFDF91CF911F910F91FF90EF906E
:100C0000DF90CF90BF90AF909F908F907F9008958E
:100C1000EF92FF920F931F93CF93DF93CDB7DEB781
:100C200029970FB6F894DEBF0FBECDBF7B01FC0144
:100C300085819681009711F00E945E14D701D796A6
:100C40008E010F5F1F4FF80189E0800F9D919193F6
:100C50008E13FCCFC7010E94DF0399E0292F30E0FB
:100C6000F801E20FF31FD701A20FB31F4081D796FF
:100C70008C91481749F08091DC03882339F083EC8C
:100C800093E00E94C10702C09150E8CF84E090E059
:100C900029960FB6F894DEBF0FBECDBFDF91CF917E
:100CA0001F910F91FF90EF9008957F928F929F92E6
:100CB000AF92BF92CF92DF92EF92FF920F931F936A
:100CC000CF93DF93EC01062F10E07C0184E7E80E60
:100CD000F11C772473946E01E4EFCE0ED11C5E01FB
:100CE000FCECAF1AFEEFBF0A4E0184EB880E911C9C
:100CF000101731F1F70117837086C7010E94DF03D7
:100D0000B701CE010E94CF07B601CE010E9429088B
:100D10008034B1F4B601C5010E940806039781F43E
:100D2000B401CE010E94CF07B601CE010E9429086E
:100D3000882331F0B601C5010E940806039781F7A8
:100D40001F5F1530A9F6DF91CF911F910F91FF9092
:100D5000EF90DF90CF90BF90AF909F908F907F905B
:100D600008951F920F920FB60F9211242F933F9365
:100D70004F935F936F937F938F939F93AF93BF93A3
:100D8000EF93FF93E0912704F0912804309709F442
:100D900051C0968DA685B785858591FF04C09C912D
:100DA000892329F447C09C91892309F043C0A38972
:100DB000B4899C918589809589238C9386899789AC
:100DC0000197F1F7608D718DA685B785558538E05F
:100DD00020E0CB010197F1F7822F90E09595879560
:100DE000282F4C91452309F02068315091F7868DCA
:100DF00081FD20958091250490E001968F739927BD
:100E000030912604381749F0A0912504B0E0AB5189
:100E1000BC4F2C938093250403C0868D8160868F00
:100E2000828D938D0197F1F7A389B4899C9185896F
:100E3000892B8C93FF91EF91BF91AF919F918F91EF
:100E40007F916F915F914F913F912F910F900FBEC6
:100E50000F901F901895CF93DF93FC01828D938D97
:100E6000892B31F1A0912704B0912804AE17BF0758
:100E7000F9F0109751F05396CD91DC9154979881E9
:100E800055968C91809589238883868D8E7F868F59
:100E90001092250410922604F0932804E09327046E
:100EA000A389B4899C918589892B8C9381E001C0A9
:100EB00080E0DF91CF910895CF92DF92EF92FF9281
:100EC0000F931F93CF93DF936C017A018B01C0E0E6
:100ED000D0E0CE15DF0589F0D8016D918D01D601E6
:100EE000ED91FC910190F081E02DC6010995892BCF
:100EF00011F47E0102C02196ECCFC701DF91CF91A2
:100F00001F910F91FF90EF90DF90CF900895E2E353
:100F1000F4E0A089B18982E08C93A485B5851C9208
:100F2000A685B7858FEC8C93108EA489B58986E051
:100F30008C93A289B3898C9180618C93A289B389A7
:100F40008C9188608C93A289B3898C9180688C93F2
:100F50000288F389E02D80818F7D8083089500973A
:100F600069F0FC0101900020E9F73197AF01481BBF
:100F7000590BBC0182E394E00C945C0780E090E0A4
:100F80000895CF93DF930E94AF07EC0189E991E0C8
:100F90000E94AF078C0F9D1FDF91CF91089540E411
:100FA00050E00C945C070C94AF078F929F92AF9225
:100FB000BF920F931F93CF93DF93CDB7DEB7A19767
:100FC0000FB6F894DEBF0FBECDBF19A2423008F4B1
:100FD0004AE08E010F5D1F4F842E912CA12CB12C65
:100FE000A50194010E942813E62FB901CA010150FE
:100FF0001109EA3014F4E05D01C0E95CD801EC931A
:10100000232B242B252B61F7C8010E94AF07A19643
:101010000FB6F894DEBF0FBECDBFDF91CF911F9109
:101020000F91BF90AF909F908F900895CF93DF93D3
:10103000682F70E080E090E04AE00E94D507EC0164
:1010400089E991E00E94AF078C0F9D1FDF91CF913E
:1010500008954F925F926F927F928F929F92AF927C
:10106000BF92CF92DF92EF92FF920F931F93CF9395
:10107000DF938C014B010E942B078FB7F8944090AF
:101080002E0450902F0460903004709031048FBF74
:1010900078018FE1E80EF11C5701C0E0D0E0680153
:1010A000AFE5CA0ED11C8FB7F89440912E04509131
:1010B0002F0460913004709131048FBF4419550999
:1010C00066097709F60180819181092E000CAA0B2F
:1010D000BB0B84179507A607B70710F48C2F23C006
:1010E000C8010E942402892BF1F28FB7F894409036
:1010F0002E0450902F0460903004709031048FBF04
:101100002196C8010E943C02D5018D935D01C03437
:10111000D10549F6F401D7018D917D018193AC157C
:10112000BD05C9F780E4DF91CF911F910F91FF902A
:10113000EF90DF90CF90BF90AF909F908F907F9077
:101140006F905F904F900895CF92DF92EF92FF9251
:10115000CF93DF936C01990FEE08FF08F7FE1FC0D5
:10116000E0913204F09133040190F081E02D6DE2C2
:1011700082E394E00995EC0166277727CB016C198F
:101180007D098E099F094AE00E94D5078C0F9D1F9B
:10119000DF91CF91FF90EF90DF90CF9008954AE0DC
:1011A000C701B601DF91CF91FF90EF90DF90CF9014
:1011B0000C94D5070F931F93CF93DF93EC01888195
:1011C0009981009729F02A813B812617370788F4F7
:1011D0008B016F5F7F4F0E94F614009761F0998337
:1011E00088831B830A832C813D81232B11F4FC010E
:1011F000108281E001C080E0DF91CF911F910F91BB
:101200000895CF92DF92EF92FF920F931F93CF93A7
:10121000DF93CDB7DEB728970FB6F894DEBF0FBEC9
:10122000CDBF8C01CB014AE09E012F5F3F4F69018A
:10123000B9010E94CA12F60101900020E9F7319726
:10124000EC19FD09D8011496ED90FC901597309794
:10125000B9F0EE0EFF1EB701C8010E94DA0888231C
:1012600081F0F8012081318184819581B601820F5E
:10127000931F0E94CE15D8011596FC92EE921497FA
:1012800081E028960FB6F894DEBF0FBECDBFDF9188
:10129000CF911F910F91FF90EF90DF90CF90089525
:1012A000EF92FF920F931F93CF93DF93EC017B019B
:1012B0008A01BA010E94DA082881398181110DC0A2
:1012C0002115310519F0C9010E945E141982188296
:1012D0001D821C821B821A8206C01D830C83B701EB
:1012E000C9010E94CE15CE01DF91CF911F910F91C0
:1012F000FF90EF900895CF93DF93CDB7DEB7A0971F
:101300000FB6F894DEBF0FBECDBF789484B582606F
:1013100084BD84B5816084BD85B5826085BD85B599
:10132000816085BD80916E00816080936E00109217
:101330008100809181008260809381008091810092
:101340008160809381008091800081608093800023
:101350008091B10084608093B1008091B000816081
:101360008093B00080917A00846080937A008091AD
:101370007A00826080937A0080917A008160809305
:101380007A0080917A00806880937A001092C10080
:101390008BE391E00E94C9138C01DC0113961C922F
:1013A0001E92129788EE93E0A0E0B0E0F8018483EB
:1013B0009583A683B7838EE091E091838083178A1B
:1013C000168A118E108E138E128E158E148E668DC7
:1013D0006E7F6D7F668F6695617081E068278BE018
:1013E0000E94B70261E08BE00E940303EBEDF0E0A6
:1013F000E491D8015096EC93E7ECF0E0E491F0E052
:10140000EE0FFF1FE855FF4F85919491F801928BE5
:10141000818B60E08AE00E940303D8015E968C9184
:1014200081FD04C061E08AE00E94B7028AE0F80111
:101430008487EAEDF0E0E491D8011D96EC93E6ECA8
:10144000F0E0E491F0E0EE0FFF1FEE54FF4F8591C6
:101450009491F8019787868788EE93E0E15AFF4FD1
:10146000918380837801F1E6EF0EF11CD7011D9284
:101470001C928091DC03882321F089E791E00E948F
:10148000C10761E089E00E94030361E089E00E94F6
:10149000B70260E570E080E090E00E943F03F80151
:1014A000138E128E118E108E178A168A8DE991E096
:1014B000958F848F9485963108F04BC02DEB30E0EA
:1014C000378B268B2BE931E0318F208F2CE231E0F6
:1014D000338F228F20916800983050F031E09E3099
:1014E00008F430E081E001C0880F3A95EAF701C0C6
:1014F00084E0822B80936800983028F09E3030F092
:101500002CE630E005C02DE630E002C02BE630E0EE
:10151000D80154963C932E935397983030F481E041
:1015200001C0880F9A95EAF70EC0292F30E09E304F
:1015300018F42850310902C02E50310981E001C051
:10154000880F2A95EAF7F801858B8DE991E00197DC
:10155000F1F7C8010E942B07198E188E1B8E1A8E68
:101560001D8E1C8E44E050E064E971E0CE01489687
:101570000E94500980910101F5E08F9FC001112464
:101580008436910534F460E070E0CE0148960E9404
:1015900001098091010125E0829FC00111240A9771
:1015A00034F460E070E0CE0148960E940109C090DA
:1015B000010135E0C39E600111241B8A1A8A1D8A2D
:1015C0001C8A1F8A1E8A688D798D6115710531F01C
:1015D0004C8D5D8DCE0142960E945009B601CE0120
:1015E00042960E94010981110CC08A899B8900974B
:1015F00011F00E945E141B8A1A8A1F8A1E8A1D8A95
:101600001C8A1D861C861F861E86198A188A6A896E
:101610007B896115710531F04E895F89CE010C9689
:101620000E945009D7018D919C91019711F029E0FA
:1016300001C025E060E0822F28A30E94B70264E683
:1016400070E080E090E00E943F03D801ED91FC91B2
:10165000488959896C857D850280F381E02DC80118
:10166000099564EF71E080E090E00E943F0361E043
:1016700028A1822F0E94B70264E670E080E090E02B
:101680000E943F038091DC03882309F442C01A8240
:1016900019821C821B821E821D8240E050E06BE991
:1016A00071E0CE0101960E945009C8010E942402F7
:1016B000892BF9F0C8010E943C028E8F1F8EED80AD
:1016C000FE80BFEFEB1AFB0AB701CE0101960E9424
:1016D000DA08882351F329813A818D819E81BE01E8
:1016E000625E7F4F820F931F0E94CE15FE82ED82B5
:1016F000DCCF4D815E8169817A8182E394E00E9432
:101700005C0789E991E00E94AF0789819A810E9474
:101710005E148C859D850E945E148A899B890E9437
:101720005E14888D998D0E945E14F801ED59FF4F6B
:1017300011821082128213820E94870782E394E052
:101740000E94CE00892B29F082E394E00E94AC0035
:10175000F5CFF801ED58FF4F108281E0319680837C
:101760008091DD039091DE03918382838091DA037F
:101770009091DB0393838483958386833E96C8018F
:1017800085559F4F1192E817F907E1F78091020103
:101790007801ECECEE1AEEEFFE0AD70112961C92DD
:1017A000129713968C93139714961C9290E0880FBF
:1017B000991F0E94C913F7019183808316821582B5
:1017C0001093E4030093E3030E94870767E0B62EBB
:1017D000AA24A39470E3472E542C612CECE32E2E04
:1017E000E1E03E2E0091E3031091E4038091DC03DD
:1017F000882351F08CE991E00E94D307F801ED585D
:10180000FF4F80810E94160882E394E00E94CE0080
:10181000892B09F445C382E394E00E94AC00D82EE2
:10182000682F82E394E00E9405017801F3E6EF0E51
:10183000F11CD70113969C91139781E0890F1396A1
:101840008C93F701E90FF11DD482B1E2DB120FC3D3
:101850004701E4E08E0E911C44E050E060EB71E043
:10186000C4010E94D515892B09F0F4C26701F8E084
:10187000CF0ED11C43E050E068EB71E0C6010E943E
:10188000D515892B31F5F801E259FF4F608161329E
:1018900099F0F801E159FF4F8081813209F0DEC2F1
:1018A0006053623098F4262F2170D22E8AE090E0A7
:1018B0000E94C303D092DC0385EB91E00E94D30722
:1018C0008091DC0390E00E94A408C1C28CEB91E0FF
:1018D000C3C242E050E06AEC71E0C6010E94D51537
:1018E000892B09F058C0F801E359FF4F80818132FC
:1018F000A1F4ECEBF3E0DE0111968B2D01900D923B
:101900008A95E1F740E1BE016F5F7F4F8091DA0376
:101910009091DB030E94CA123BC0F801EF58FF4FC1
:101920008081813219F08DEC91E096C2ECEBF3E00E
:10193000DE0111968B2D01900D928A95E1F7D7016A
:1019400014968C9114978B8315968C9115978C8394
:1019500016968C9116978D8317968C918E8340E105
:1019600050E060E070E0CE0101960E949E10D62EFD
:10197000672F81E090E078A30E94C3036D2D82E081
:1019800090E00E94C303D092DA0378A17093DB0346
:1019900087EC91E056C243E050E06AED71E0C60189
:1019A0000E94D515892B09F051C0F801E259FF4F6B
:1019B00080818132A1F4ECEBF3E0DE0111968B2DF6
:1019C00001900D928A95E1F740E1BE016F5F7F4F74
:1019D0008091DA039091DB030E94CA1234C0F801AF
:1019E000EE58FF4F8081813219F08EED91E034C2C4
:1019F000ECEBF3E0DE0111968B2D01900D928A95B0
:101A0000E1F7F70184818B8385818C8386818D83C7
:101A100087818E8340E150E060E070E0CE01019666
:101A20000E949E10D62E672F83E090E078A30E943C
:101A3000C3036D2D84E090E00E94C303D092DD03C8
:101A400078A17093DE0387ED91E0FBC143E050E0A5
:101A50006CEE71E0C6010E94D515892B09F056C0C5
:101A6000F801E259FF4F80818132A1F4ECEBF3E001
:101A7000DE0111968B2D01900D928A95E1F740E1E0
:101A8000BE016F5F7F4F8091DA039091DB030E946C
:101A9000CA12D5C1F801EE58FF4F8081813219F08A
:101AA00080EF91E0D9C1ECEBF3E0DE0111968B2DD4
:101AB00001900D928A95E1F7D70114968C911497B5
:101AC0008B8315968C9115978C8316968C9116970F
:101AD0008D8317968C918E8340E150E060E070E03A
:101AE000CE0101960E949E10D62E672F85E090E0D1
:101AF00078A30E94C3036D2D86E090E00E94C3038B
:101B0000D092DF0378A17093E00399C143E050E0E5
:101B10006EEF71E0C6010E94D515892BC9F5F80159
:101B2000E259FF4F8081813239F48BEF91E00E94BE
:101B3000D30760910201E8C0F801EF58FF4F908190
:101B4000913219F082E092E087C120E330E340E374
:101B500050E029833A834B835C838983F801E15900
:101B6000FF4F80818A83319680818B834AE050E0E9
:101B700060E070E0CE0101960E949E10D62E88E0B3
:101B800090E00E94C303D09202018BEF91E0EEC07F
:101B900043E050E060E172E0C6010E94D515892B58
:101BA00069F5F801E259FF4F8081813239F48DE007
:101BB00092E00E94D3076091E103A6C0F801EE58BD
:101BC000FF4F9081913219F084E192E045C140E3EA
:101BD00050E05A83498389834AE050E060E070E036
:101BE000CE0101960E949E10D62E89E090E00E94C0
:101BF000C303D092E1038DE092E0B8C043E050E02F
:101C000062E272E0C6010E94D515892B69F5F801E0
:101C1000E259FF4F8081813219F48FE192E035C0A3
:101C2000F801E059FF4F9081913219F086E292E07D
:101C300013C149825A826B828983F801E159FF4FAF
:101C400080818A834AE050E060E070E0CE01019636
:101C50000E949E10D62E8CE090E00E94C303D0928A
:101C600001018FE192E082C043E050E064E372E062
:101C7000C6010E94D515892B89F5F801E259FF4F5D
:101C80008081813239F481E392E00E94D307609130
:101C900001013AC0F801E059FF4F9081913219F0EB
:101CA00088E392E0D9C049825A826B828983F80125
:101CB000E159FF4F80818A834AE050E060E070E0A4
:101CC000CE0101960E949E10D62E8BE090E00E94DD
:101CD000C303D092000181E392E048C043E050E0AA
:101CE00066E472E0C6010E94D515892B09F043C055
:101CF000F801E259FF4F8081813269F483E492E078
:101D00000E94D3076091030170E080E090E04AE018
:101D10000E94D5079CC0F801EF58FF4F9081913287
:101D200019F08AE492E098C020E330E340E350E009
:101D300029833A834B835C838983F801E159FF4F00
:101D400080818A83319680818B834AE050E060E015
:101D500070E0CE0101960E949E10D62E87E090E0A2
:101D60000E94C303D092030183E492E00E94D30750
:101D7000CE0101966AC046E050E065E572E0C6011A
:101D80000E94D515892BF9F4F801EF58FF4F808197
:101D9000813229F48091E203882379F011C0DD2497
:101DA000D394813309F0D12C6D2D80E090E00E9416
:101DB000C303D092E203D11003C080E791E04CC08E
:101DC00086E691E049C043E050E06CE572E0C60170
:101DD0000E94D515892B09F041C0F801EE58FF4F3C
:101DE0008081813229F080E692E00E94D30736C0DC
:101DF000ECEBF3E0DE0111968B2D01900D928A95AC
:101E0000E1F7D70114968C9114978B8315968C91DA
:101E100015978C8316968C9116978D8317968C91B7
:101E200017978E831296AC9240E150E060E070E02C
:101E3000CE0101960E94AF11F7017183608389EE94
:101E400091E00E94D307CE0103960E94D30785ED4F
:101E500091E002C08BE692E00E94C10766E772E063
:101E6000C4010E94CE15D70113961C9219C08C3064
:101E7000B9F482E892E00E94C10782E394E00E94F4
:101E8000CE00892B29F082E394E00E94AC00F5CFCC
:101E900066E772E0C70104960E94CE15F70113822F
:101EA0008091E203882309F419C1F801ED59FF4F2D
:101EB0008281811112824801F3E78F0E911CD401B7
:101EC0008C91F801EC50FF4F7F01811165C0EE5BF2
:101ED000FF4F2081222309F45FC03297C480D12CA8
:101EE000213031F0638170E0C60101960E949B139E
:101EF000848321502283CC0CDD1C0190F081E02DE5
:101F0000EC0DFD1D80819181DC01F801EC54FF4F47
:101F10006F012D912193EE15FF05D9F70E945E14F4
:101F20008091DC03882399F18DE892E00E94C1073B
:101F3000D6018C910E94A304019788309105F8F492
:101F40008C5C9F4FFC010C94AF1388EA92E005C0B3
:101F50008FEB92E002C08DED92E00E94C10717C0A6
:101F600081E093E0FACF8FE193E0F7CF8DE393E048
:101F7000F4CF88E593E0F1CF84E793E0EECF8BE8F0
:101F800093E00E94D307D6018C910E941608D401D9
:101F90006C91C8010E945506F40180816801F4E744
:101FA000CF0ED11CD60117968C93179718961C92BA
:101FB000C6010E94DF03B601C8010E94CF07B70126
:101FC000C8010E9429089091DC03803409F076C092
:101FD000992321F082EA93E00E94C107B701C8016A
:101FE0008C5C9E4F0E9408068230910551F084302F
:101FF0009105D1F1019709F067C0B8016C547F4F8A
:1020000059C06801B4EBCB0ED11CF801E950FF4F69
:10201000808190E0982F882731962081820F911D32
:102020002091DA033091DB0344E050E05C834B8382
:102030009E838D8338872F833A872987AB86E6E393
:10204000F1E0FA83E983B601CE0101960E9479049A
:10205000B601C8010E94CF0740E450E0B70182E317
:1020600094E00E945C0730C07801F4EBEF0EF11CA5
:10207000F801E950FF4F808190E0982F8827319632
:102080002081820F911D2091DA033091DB0343E020
:1020900050E05C834B839E838D8338872F833A8700
:1020A0002987AB863A822982B701CE0101960E9428
:1020B0007904B701C8010E94CF0706C0992321F017
:1020C00081EB93E00E94C107D4018C9190E00196CE
:1020D00065E070E00E949B13F40180830E946E0112
:1020E00081CBE2E3F4E01382128288EE93E0A0E079
:1020F000B0E084839583A683B7838AE591E09183DA
:10210000808385EC90E09587848784EC90E09787C6
:10211000868780EC90E0918B808B81EC90E0938BB4
:10212000828B82EC90E0958B848B86EC90E0978B91
:10213000868B118E128E138E148E0895A0E0B0E05F
:10214000E4EAF0E10C9455135C016B017A0161152E
:10215000710519F0FB0191838083E114F10429F0EA
:10216000C7010297839708F0F1C0E5012196F501B8
:102170001081812F90E00E94C112892B11F05E0125
:10218000F4CF1D3229F42196F501118101E007C039
:102190001B3221F4E5012296F501118100E0E114E2
:1021A000F10459F1F0E1EF16F10461F41033E1F4B8
:1021B00088818F7D883569F519812296026070E1EA
:1021C000E72EF12C88E0E816F10439F12CF4F2E066
:1021D000EF16F104C9F12AC08AE0E816F10479F09B
:1021E000E0E1EE16F10411F550E1E52EF12C812C21
:1021F000912CA12C68E0B62E2CC01033C9F23AE025
:10220000E32EF12C4CEC842E982CA82C4CE0B42E10
:1022100020C010E3E114F104A9F698E0E92EF12CB6
:10222000812C912CA12C20E1B22E13C060E070E033
:1022300080E090E897010F2C000C440B550B0E9496
:10224000281349015A0105C0812C912CA12C80E44E
:10225000B82E60E020E030E0A90127010F2C000C2F
:10226000660877081E01E0EDE10FEA3060F08FEBC1
:10227000810F8A3110F4E9EC05C08FE9810F8A31B2
:1022800028F5E9EAE10F8E2F90E08E159F05F4F412
:1022900067FD18C082169306A406B50690F0C30128
:1022A000B2010E9418139B01AC012E0F311D411D7C
:1022B000511D213031054105F0E85F0710F461E060
:1022C00001C06FEF2196F1011081CCCF802F81707A
:1022D000C114D10471F0662329F02197F601D1834E
:1022E000C08307C001FF19C02297F601D183C083C4
:1022F00014C067FF12C0811105C02FEF3FEF4FEFF1
:102300005FE704C020E030E040E050E882E290E087
:102310009093D0048093CF0416C0882341F0509549
:102320004095309521953F4F4F4F5F4F0CC057FF61
:102330000AC082E290E09093D0048093CF042FEF04
:102340003FEF4FEF5FE7B901CA0104C060E070E002
:1023500080E090E0CDB7DEB7E2E10C947113A6E027
:10236000B0E0E5EBF1E10C9455135C016B017A01EF
:102370006115710519F0DB018D939C93E114F10453
:1023800029F0C7010297839708F0DCC03501BFEF41
:102390006B1A7B0AF5011081812F90E00E94C11217
:1023A000892B11F05301F2CF1D3249F43501F2E0CF
:1023B0006F0E711CD50111961C9101E009C01B32F2
:1023C00031F43501B2E06B0E711CF501118100E0B2
:1023D000E114F10409F4C4C0F0E1EF16F10489F44A
:1023E000103399F5D3018C918F7D883509F0B2C0F7
:1023F00011961C91B2E06B0E711C026050E1E52E4B
:10240000F12CEAE0EE16F10409F4B0C0F0E1EF16A9
:10241000F104D9F028E0E216F10451F438E0E32E9B
:10242000F12C88248A94982CA82C4FE1B42E13C048
:102430006FEF7FEFCB0197010F2C000C440B550B76
:102440000E94281349015A0106C088248A94982CB6
:10245000A82C2FE0B22E7E826D8260E020E030E07A
:10246000A90127010F2C000C660877082D803E80FB
:10247000E0EDE10FEA3060F08FEB810F8A3110F46C
:10248000E9EC05C08FE9810F8A3190F5E9EAE10FA7
:102490008E2F90E08E159F055CF56F3F09F1821637
:1024A0009306A406B506D8F0C301B2010E94181322
:1024B0002E2F30E040E050E029833A834B835C8349
:1024C000260F371F481F591F89819A81AB81BC8114
:1024D000281739074A075B0710F061E001C06FEF6A
:1024E000ED81FE813196FE83ED83D1011C91BECF3B
:1024F000C114D10489F0662339F08D819E81019742
:10250000F6019183808308C001FF06C08D819E8102
:102510000297D6018D939C9300FF07C0509540957C
:10252000309521953F4F4F4F5F4F67FF10C082E2BC
:1025300090E09093D0048093CF046FEF7FEF8FEF04
:102540009FEF1BC060E070E080E090E016C0B90132
:10255000CA0113C010E3E114F10409F45FCF51CFB5
:10256000103309F43FCF9AE0E92EF12C89E9882E47
:10257000982CA82C89E1B82E6ECF2696E2E10C9417
:10258000711391110C94EF12803219F0895085501B
:10259000C8F70895BB274A3031F4992322F4BDE2ED
:1025A000909581959F4F0C94D612BB27FB01552720
:1025B000AA27880F991FAA1FA41710F0A41B8395A0
:1025C0005051B9F7A05DAA3308F0A95DA193009717
:1025D00079F7B111B1931192CB010C94F2129927B2
:1025E00088270895DC01FC01672F71917723E1F7BB
:1025F000329704C07C916D9370836291AE17BF07D0
:10260000C8F30895F999FECF92BD81BDF89A992734
:1026100080B50895262FF999FECF1FBA92BD81BDCE
:1026200020BD0FB6F894FA9AF99A0FBE0196089554
:10263000DB018F939F930E944A13BF91AF91A29F9A
:10264000800D911DA39F900DB29F900D11240895B0
:10265000A1E21A2EAA1BBB1BFD010DC0AA1FBB1FA6
:10266000EE1FFF1FA217B307E407F50720F0A21B18
:10267000B30BE40BF50B661F771F881F991F1A9485
:1026800069F760957095809590959B01AC01BD01AF
:10269000CF0108950E948C13A59F900DB49F900DBB
:1026A000A49F800D911D112408952F923F924F9267
:1026B0005F926F927F928F929F92AF92BF92CF92D2
:1026C000DF92EF92FF920F931F93CF93DF93CDB7DB
:1026D000DEB7CA1BDB0B0FB6F894DEBF0FBECDBF53
:1026E00009942A88398848885F846E847D848C8424
:1026F0009B84AA84B984C884DF80EE80FD800C812D
:102700001B81AA81B981CE0FD11D0FB6F894DEBF0F
:102710000FBECDBFED010895A29FB001B39FC001D0
:10272000A39F700D811D1124911DB29F700D811DFD
:102730001124911D089597FB072E16F4009407D0DD
:1027400077FD09D00E94B51307FC05D03EF49095A3
:1027500081959F4F0895709561957F4F0895EE0F75
:10276000FF1F0590F491E02D0994AA1BBB1B51E1BA
:1027700007C0AA1FBB1FA617B70710F0A61BB70BF1
:10278000881F991F5A95A9F780959095BC01CD0196
:102790000895CF93DF938230910510F482E090E0AA
:1027A000E091D304F091D40420E030E0C0E0D0E028
:1027B000309711F14081518148175907C0F04817EF
:1027C000590761F482819381209719F09B838A8352
:1027D0002BC09093D4048093D30426C021153105D7
:1027E00019F04217530718F49A01BE01DF01EF01F7
:1027F0000280F381E02DDCCF2115310509F1281B82
:10280000390B2430310590F412968D919C911397D9
:102810006115710521F0FB019383828304C09093BD
:10282000D4048093D304FD01329644C0FD01E20F2D
:10283000F31F81939193225031092D933C933AC019
:102840002091D1043091D204232B41F42091060130
:10285000309107013093D2042093D10420910401D8
:10286000309105012115310541F42DB73EB7409156
:10287000080150910901241B350BE091D104F0911E
:10288000D204E217F307A0F42E1B3F0B28173907D9
:1028900078F0AC014E5F5F4F2417350748F04E0FBC
:1028A0005F1F5093D2044093D1048193919302C04F
:1028B000E0E0F0E0CF01DF91CF9108950F931F93F7
:1028C000CF93DF93009709F48CC0FC0132971382F9
:1028D00012820091D3041091D4040115110581F4E2
:1028E00020813181820F931F2091D1043091D20435
:1028F0002817390779F5F093D204E093D10471C019
:10290000D80140E050E0AE17BF0750F412962D9169
:102910003C911397AD012115310509F1D901F3CF90
:102920009D01DA013383228360817181860F971FB5
:102930008217930769F4EC0128813981260F371F2C
:102940002E5F3F4F318320838A819B8193838283D3
:10295000452B29F4F093D404E093D30442C013969A
:10296000FC93EE931297ED01499159919E01240F2A
:10297000351FE217F30771F480819181840F951F51
:10298000029611969C938E938281938113969C93C9
:102990008E931297E0E0F0E0D80112968D919C9111
:1029A0001397009719F0F8018C01F6CF8D919C9147
:1029B00098012E5F3F4F820F931F2091D1043091D9
:1029C000D2042817390769F4309729F41092D404F7
:1029D0001092D30402C0138212821093D204009387
:1029E000D104DF91CF911F910F910895A0E0B0E045
:1029F000ECEFF4E10C945913EC01009721F4CB01B6
:102A00000E94C913B8C0FC01E60FF71F9C012250B9
:102A10003109E217F30708F4ACC0D9010D911C91FC
:102A2000119706171707B0F00530110508F49FC07D
:102A3000C80104978617970708F499C00250110936
:102A4000061B170B019311936D937C93CF010E948A
:102A50005E148DC05B01A01AB10A4C01800E911E5C
:102A6000A091D304B091D40440E050E0E12CF12CCB
:102A7000109709F44AC0A815B905D1F56D907C905E
:102A80001197630182E0C80ED11CCA14DB0480F1E7
:102A9000A3014A195B096A0182E0C80ED11C129693
:102AA000BC9012971396AC91B5E0CB16D10440F0D0
:102AB000B282A38351834083D9016D937C930AC072
:102AC0000E5F1F4FC301800F911FF9019183808317
:102AD000EB2DFA2FE114F10431F0D7011396FC939A
:102AE000EE93129744C0F093D404E093D3043FC014
:102AF0008D919C9111974817590708F4AC017D01FD
:102B000012960D90BC91A02DB3CF8091D1049091DD
:102B1000D20488159905E1F446175707C8F4809147
:102B2000040190910501009741F48DB79EB7409143
:102B3000080150910901841B950BE817F907C8F4A7
:102B4000F093D204E093D104F901718360830FC044
:102B5000CB010E94C9137C01009759F0A801BE0166
:102B60000E94C515CE010E945E14C70104C0CE01AB
:102B700002C080E090E0CDB7DEB7EEE00C947513B4
:102B800081E090E0F8940C94E315FB01DC0102C0B5
:102B900001900D9241505040D8F70895FB01DC019F
:102BA00001900D920020E1F70895FB01DC014150F6
:102BB000504030F08D910190801919F40020B9F740
:0A2BC000881B990B0895F894FFCFCD
:102BCA000B010AFF0000D504800000000000D001BC
:102BDA005C0724023C02B701CF01000000005D023D
:102BEA005C075D025D025D025D02000000005D029D
:102BFA005C0700000000790400000000790400006E
:102C0A0000007904000000002204000000004D04C6
:102C1A000000000079040000000005015C07CE00F6
:102C2A00AC00C0004C014F4B2B535441525421006D
:102C3A004F4B2B53544F50210047726F75702048E9
:102C4A0043313220696E697469616C697A696E67A9
:102C5A002E2E2E0041542B43000D0A0043616C6C4A
:102C6A00696E67206E65696768626F7572202300F6
:102C7A005752442B004F4B2B444247004552524F68
:102C8A00522B44424721004F4B2B49440045525294
:102C9A004F522B494421004F4B2B42494400455285
:102CAA00524F522B42494421004F4B2B4549440075
:102CBA004552524F522B45494421004F4B2B4C53FE
:102CCA0054004552524F522B4C535421004F4B2B18
:102CDA004E4944004552524F522B4E494421004F0F
:102CEA004B2B474348004552524F522B47434821EA
:102CFA00004F4B2B424348004552524F522B4243FE
:102D0A004821004F4B2B54544C004552524F522BE2
:102D1A0054544C210053544154555300504E4700CB
:102D2A004552524F522B504E4721004552524F5254
:102D3A002B434D442100232323232323232323230B
:102D4A0023004552524F522B4D5347210050726572
:102D5A0070617265642061206D65737361676520B7
:102D6A00746F2073656E64004D65737361676520C7
:102D7A00747970653A204143434944454E54004DA5
:102D8A0065737361676520747970653A2043414CB5
:102D9A004C5F4E45494748424F555253004D657363
:102DAA007361676520747970653A2043414C4C5FC2
:102DBA004E45494748424F5552535F5245504C5928
:102DCA00004D65737361676520747970653A2043B5
:102DDA00414E43454C5F4143434944454E54004D9F
:102DEA0065737361676520747970653A20434F4E45
:102DFA004649524D5F4D455353414745004D657312
:102E0A007361676520747970653A20434F4E46496D
:102E1A00524D5F50494E47004D6573736167652097
:102E2A00747970653A204552524F525F4D4553535B
:102E3A00414745004D657373616765207479706514
:102E4A003A205245515F50494E4700494E56414C2F
:102E5A004944204D45535341474520545950453A1A
:102E6A0020005265636569766564207265706C79C5
:102E7A000020204E6F207265706C790030783030F7
:102E8A003030004D65737361676520696E746567DC
:0A2E9A0072697479206661696C00AA
:00000001FF
