:100000000C943D000C9465000C9465000C94E00287
:100010000C94E0020C94E0020C9465000C946500D2
:100020000C9465000C9465000C9465000C946500BC
:100030000C9465000C9465000C9465000C946500AC
:100040000C9496020C9465000C9464020C943E028D
:100050000C9465000C9465000C9465000C9465008C
:100060000C9465000C946500B701AA01B901AC01BC
:10007000AE01B001B201B401140411241FBECFEFD0
:10008000D8E0DEBFCDBF21E0A8E2B1E001C01D9203
:10009000AD3DB207E1F711E0A0E0B1E0EEE0FBE03A
:1000A00002C005900D92A832B107D9F710E0CDE358
:1000B000D0E004C02197FE010E944D04CC33D1074B
:1000C000C9F70E94EA020C9485050C940000CF92B7
:1000D000DF92EF92FF920F931F93CF93DF936C0108
:1000E0007A018B01C0E0D0E0CE15DF0589F0D801A0
:1000F0006D918D01D601ED91FC910190F081E02D83
:10010000C6010995892B11F47E0102C02196ECCF1E
:10011000C701DF91CF911F910F91FF90EF90DF907A
:10012000CF900895FC01918D828D981761F0828D9A
:10013000DF01A80FB11D5D968C91928D9F5F9F731B
:10014000928F90E008958FEF9FEF0895FC01918DBD
:10015000828D981731F0828DE80FF11D858D90E02A
:1001600008958FEF9FEF0895FC01918D228D892FC7
:1001700090E0805C9F4F821B91098F7399270895AF
:1001800083E391E00E94B40021E0892B09F420E090
:10019000822F0895FC01848DDF01A80FB11DA35AA1
:1001A000BF4F2C91848D90E001968F739927848F97
:1001B000A689B7892C93A089B1898C9180648C938E
:1001C000938D848D981306C00288F389E02D808179
:1001D0008F7D80830895EF92FF920F931F93CF93AB
:1001E000DF93EC0181E0888F9B8D8C8D981305C087
:1001F000E889F989808185FD24C0F62E0B8D10E0F9
:100200000F5F1F4F0F731127E02E8C8DE8120CC06B
:100210000FB607FCFACFE889F989808185FFF5CF11
:10022000CE010E94CA00F1CF8B8DFE01E80FF11DB7
:10023000E35AFF4FF0820B8FEA89FB89808180624D
:1002400007C0EE89FF896083E889F989808180642D
:10025000808381E090E0DF91CF911F910F91FF901B
:10026000EF900895CF93DF93EC01888D8823C9F038
:10027000EA89FB89808185FD05C0A889B9898C91AF
:1002800086FD0FC00FB607FCF5CF808185FFF2CF4A
:10029000A889B9898C9185FFEDCFCE010E94CA0053
:1002A000E7CFDF91CF91089580E090E0892B29F08E
:1002B0000E94C00081110C9400000895CF92DF923B
:1002C000EF92FF92FC01DC01A05CBF4F9C01295C16
:1002D0003F4F1E92A217B307E1F7DF014FEF5FEF29
:1002E000BA018D91482788E090E06A017B01F6947D
:1002F000E794D794C7944170552766277727709560
:100300006095509541955F4F6F4F7F4F4072537886
:10031000687B7D7E4C255D256E257F25019729F71D
:10032000A217B307F1F6409550956095709547AFC9
:1003300056AF65AF74AF80E4FF90EF90DF90CF9041
:10034000089501978830910588F48C5C9F4FFC01DB
:100350000C944D0482E0089584E0089585E00895AA
:1003600086E0089587E0089588E00895089581E083
:10037000089583E008950F931F93CF93DF93EC01CB
:100380008B018A819B810E94A101F80180838D816C
:1003900081838C8182838F8183838E81848389850D
:1003A0008583888586838A858783FE013B96D8016D
:1003B0001896EB9681918D93EC17FD07D9F7C8013C
:1003C000DF91CF911F910F910C945E010F931F93BA
:1003D000CF93DF93EC018B018A819B810E94A10165
:1003E000F80180838D8181838C8182838F818383D7
:1003F0008E81848389858583888586838A858783A2
:10040000FE017396D8011896CE5BDF4F81918D93D4
:10041000EC17FD07D9F7C801DF91CF911F910F911C
:100420000C945E010F931F93CF93DF938C01EB012C
:10043000FC01828193810E94A1018883F80185815A
:10044000898384818A8387818B8386818C8381855C
:100450008D8380858E8382858F83FE013896CE01C1
:10046000C7961192E817F907E1F7CE01DF91CF9116
:100470001F910F910C945E010E9480051F920F92B4
:100480000FB60F9211242F933F934F935F936F9367
:100490007F938F939F93AF93BF93EF93FF9383E3E8
:1004A00091E00E94CA00FF91EF91BF91AF919F919F
:1004B0008F917F916F915F914F913F912F910F900D
:1004C0000FBE0F901F9018951F920F920FB60F92AC
:1004D00011242F938F939F93EF93FF93E091430108
:1004E000F09144018081E0914901F0914A0182FD3F
:1004F00012C0908180914C018F5F8F7320914D01CC
:10050000821751F0E0914C01F0E0ED5CFE4F958FC9
:1005100080934C0101C08081FF91EF919F918F9159
:100520002F910F900FBE0F901F9018951F920F9252
:100530000FB60F9211242F933F938F939F93AF93F6
:10054000BF9380912F0190913001A0913101B09122
:10055000320130912E0123E0230F2D3720F4019634
:10056000A11DB11D05C026E8230F0296A11DB11DD6
:1005700020932E0180932F0190933001A09331019D
:10058000B093320180912A0190912B01A0912C010E
:10059000B0912D010196A11DB11D80932A01909368
:1005A0002B01A0932C01B0932D01BF91AF919F918E
:1005B0008F913F912F910F900FBE0F901F90189524
:1005C0001F920F920FB60F9211240F900FBE0F9033
:1005D0001F901895CF93DF93CDB7DEB7E0970FB696
:1005E000F894DEBF0FBECDBF789484B5826084BD21
:1005F00084B5816084BD85B5826085BD85B5816027
:1006000085BD80916E00816080936E0010928100A4
:10061000809181008260809381008091810081605F
:100620008093810080918000816080938000809120
:10063000B10084608093B1008091B00081608093AC
:10064000B00080917A00846080937A0080917A0073
:10065000826080937A0080917A00816080937A0032
:1006600080917A00806880937A001092C100E091B6
:100670004301F091440182E08083E0913F01F091D9
:1006800040011082E0914101F09142018FEC8083A2
:1006900010924B01E0914701F091480186E0808380
:1006A000E0914501F0914601808180618083E09175
:1006B0004501F0914601808188608083E091450189
:1006C000F0914601808180688083E0914501F0913E
:1006D000460180818F7D808380E490E00E945304F6
:1006E0009093D2018093D1018E010F5F1F4FF801CB
:1006F00080E081938F5F8033E1F78BE090E00E9490
:100700005304FC0186E090E0938382838FE0882E7F
:10071000912C9582848299E0A92EB12CB782A68271
:100720002AE0C22ED12CD186C086FF24FA94F2860C
:100730008AE191E091838083F093D401E093D30127
:100740008BE390E00E945304FC0187E090E09383E8
:10075000828395828482B782A682D186C086F28601
:1007600080E291E091838083CF010B96A80130E372
:10077000F32EF00EDA012D91AD01DC012D93CD01A8
:10078000F412F8CFF093D601E093D5018BE390E01B
:100790000E945304FC0188E090E0938382838FE001
:1007A00090E09583848389E090E0978386838AE054
:1007B00090E0918780878FEF828786E291E0918336
:1007C00080839F01255F3F4FD8018D918D01D90115
:1007D0008D939D01F012F8CFF093D801E093D701EB
:1007E00013E08091D3019091D401DC01ED91FC9153
:1007F0006091D1017091D2010190F081E02D0995B5
:100800008091D001612F0E9441049093D0016091AA
:10081000D1017091D20140E450E083E391E00E9465
:1008200067000E945401DDCFE3E3F1E013821282FE
:1008300088EE93E0A0E0B0E084839583A683B7833D
:100840008AE091E09183808385EC90E095878487AE
:1008500084EC90E09787868780EC90E0918B808B8A
:1008600081EC90E0938B828B82EC90E0958B848B73
:1008700086EC90E0978B868B118E128E138E148EE1
:100880000895991B79E004C0991F961708F0961BEC
:10089000881F7A95C9F780950895EE0FFF1F059080
:1008A000F491E02D0994CF93DF938230910510F4F9
:1008B00082E090E0E091DB01F091DC0120E030E0AB
:1008C000C0E0D0E0309711F14081518148175907BD
:1008D000C0F04817590761F482819381209719F07D
:1008E0009B838A832BC09093DC018093DB0126C01D
:1008F0002115310519F04217530718F49A01BE016A
:10090000DF01EF010280F381E02DDCCF21153105FD
:1009100009F1281B390B2430310590F412968D9182
:100920009C9113976115710521F0FB0193838283DC
:1009300004C09093DC018093DB01FD01329644C03A
:10094000FD01E20FF31F81939193225031092D9302
:100950003C933AC02091D9013091DA01232B41F424
:1009600020910201309103013093DA012093D901E3
:1009700020910001309101012115310541F42DB77D
:100980003EB74091040150910501241B350BE091C5
:10099000D901F091DA01E217F307A0F42E1B3F0B07
:1009A0002817390778F0AC014E5F5F4F24173507E1
:1009B00048F04E0F5F1F5093DA014093D9018193A5
:1009C000919302C0E0E0F0E0CF01DF91CF91089574
:1009D0000F931F93CF93DF93009709F48CC0FC0112
:1009E0003297138212820091DB011091DC01011514
:1009F000110581F420813181820F931F2091D9014B
:100A00003091DA012817390779F5F093DA01E0938C
:100A1000D90171C0D80140E050E0AE17BF0750F4D3
:100A200012962D913C911397AD012115310509F1D5
:100A3000D901F3CF9D01DA01338322836081718173
:100A4000860F971F8217930769F4EC01288139817B
:100A5000260F371F2E5F3F4F318320838A819B8172
:100A600093838283452B29F4F093DC01E093DB012F
:100A700042C01396FC93EE931297ED014991599160
:100A80009E01240F351FE217F30771F480819181D5
:100A9000840F951F029611969C938E938281938169
:100AA00013969C938E931297E0E0F0E0D801129693
:100AB0008D919C911397009719F0F8018C01F6CF56
:100AC0008D919C9198012E5F3F4F820F931F209133
:100AD000D9013091DA012817390769F4309729F4E0
:100AE0001092DC011092DB0102C01382128210937B
:100AF000DA010093D901DF91CF911F910F910895F1
:0E0B000081E090E0F8940C948505F894FFCF06
:100B0E000000DD01800000000000EB006700B40073
:100B1E009200A60032010000000012020000000048
:080B2E00E60100000000BB011C
:107E0000112484B714BE81FFF0D085E080938100F7
:107E100082E08093C00088E18093C10086E0809377
:107E2000C20080E18093C4008EE0C9D0259A86E02C
:107E300020E33CEF91E0309385002093840096BBD3
:107E4000B09BFECF1D9AA8958150A9F7CC24DD24C4
:107E500088248394B5E0AB2EA1E19A2EF3E0BF2EE7
:107E6000A2D0813461F49FD0082FAFD0023811F036
:107E7000013811F484E001C083E08DD089C08234E0
:107E800011F484E103C0853419F485E0A6D080C0E4
:107E9000853579F488D0E82EFF2485D0082F10E0AE
:107EA000102F00270E291F29000F111F8ED06801E7
:107EB0006FC0863521F484E090D080E0DECF843638
:107EC00009F040C070D06FD0082F6DD080E0C81688
:107ED00080E7D80618F4F601B7BEE895C0E0D1E017
:107EE00062D089930C17E1F7F0E0CF16F0E7DF06D8
:107EF00018F0F601B7BEE89568D007B600FCFDCFD4
:107F0000A601A0E0B1E02C9130E011968C91119780
:107F100090E0982F8827822B932B1296FA010C0160
:107F200087BEE89511244E5F5F4FF1E0A038BF0790
:107F300051F7F601A7BEE89507B600FCFDCF97BE46
:107F4000E89526C08437B1F42ED02DD0F82E2BD052
:107F50003CD0F601EF2C8F010F5F1F4F84911BD097
:107F6000EA94F801C1F70894C11CD11CFA94CF0C13
:107F7000D11C0EC0853739F428D08EE10CD085E9AC
:107F80000AD08FE07ACF813511F488E018D01DD067
:107F900080E101D065CF982F8091C00085FFFCCF94
:107FA0009093C60008958091C00087FFFCCF809118
:107FB000C00084FD01C0A8958091C6000895E0E648
:107FC000F0E098E1908380830895EDDF803219F02E
:107FD00088E0F5DFFFCF84E1DECF1F93182FE3DFCA
:107FE0001150E9F7F2DF1F91089580E0E8DFEE27F6
:047FF000FF270994CA
:027FFE00040479
:0400000300007E007B
:00000001FF